:100000000C9434000C9451000C9451000C94510049
:100010000C9451000C9451000C9451000C9451001C
:100020000C9451000C9451000C9451000C9451000C
:100030000C9451000C9451000C9451000C945100FC
:100040000C9451000C9451000C94AC020C94D40309
:100050000C9451000C9451000C9451000C945100DC
:100060000C9451000C94510011241FBECFEFD8E026
:10007000DEBFCDBF11E0A0E0B1E0E0E5FAE002C0F4
:1000800005900D92A432B107D9F721E0A4E2B1E0C6
:1000900001C01D92AB3AB207E1F70E9453000C94E5
:1000A00012050C940000CF93DF93CDB7DEB70E940A
:1000B0001B010E9462020E94790082E091E00E948E
:1000C00021010E94A60000000E948F00892BE1F30D
:1000D0000E94B700DC01CB01BC01CD010E944F01A1
:1000E0008DE191E00E94210184E690E00E943902B6
:1000F000E8CFCF93DF93CDB7DEB78AE790E02AE76A
:1001000030E0F90120812078FC0120838CE790E029
:1001100028ECFC0120830000DF91CF910895CF935C
:10012000DF93CDB7DEB78AE790E0FC018081082E2F
:10013000000C990B80749927892B19F080E090E0CE
:1001400002C081E090E0DF91CF910895CF93DF93DB
:10015000CDB7DEB78AE790E02AE730E0F9012081E9
:10016000206CFC0120830000DF91CF910895CF9394
:10017000DF93CDB7DEB760970FB6F894DEBF0FBE42
:10018000CDBF88E790E0FC018081082E000C990B20
:10019000AA0BBB0B89839A83AB83BC8389E790E06E
:1001A000FC018081082E000C990B982F8827092EBE
:1001B000000CAA0BBB0B8D839E83AF83B8872D8168
:1001C0003E814F81588589819A81AB81BC81822B88
:1001D000932BA42BB52B89879A87AB87BC8729855E
:1001E0003A854B855C8585E690E0DC010E94D6046B
:1001F000DC01CB0124E630E040E050E0BC01CD0161
:100200000E94B704DA01C90181519140A109B109E5
:100210008D879E87AF87B88B8D859E85AF85B88982
:10022000BC01CD0160960FB6F894DEBF0FBECDBF06
:10023000DF91CF9108950E949902789408950C94CB
:100240005D04CF93DF93EC018991882319F00E941C
:100250005D04FACFDF91CF910895CF93C82F90E03E
:1002600024E0959587952A95E1F78A3010F4805D12
:1002700001C0895C0E945D048C2F8F708A3010F061
:10028000895C01C0805DCF910C945D04CF93C82F31
:10029000892F0E942D018C2FCF910C942D012F922C
:1002A0003F924F925F926F927F928F929F92AF9206
:1002B000BF92CF92DF92EF92FF920F931F93CF9353
:1002C000DF93CDB7DEB763970FB6F894DEBF0FBEEE
:1002D000CDBF6B017C0197FF0DC0F094E094D094EA
:1002E000C094C11CD11CE11CF11C81E090E09B8BEF
:1002F0008A8B02C01B8A1A8AFE0131965F018E0129
:10030000055F1F4FF98BE88B66246394712C812C59
:10031000912CAAE0B0E09301A4010E94D6041B0135
:100320002C01C701B6019101A2010E94B7049301FB
:10033000A4010E94B704E889F9892193F98BE88B1D
:10034000822F220F990BAA0BBB0BC81AD90AEA0AF3
:10035000FB0A310142010E171F07D9F68A899B89D2
:10036000892B19F08DE20E945D0420E030E0F80155
:1003700082918F01811106C02115310519F4EA150A
:10038000FB0529F4805D0E945D0421E030E00A1540
:100390001B0569F763960FB6F894DEBF0FBECDBF9D
:1003A000DF91CF911F910F91FF90EF90DF90CF9051
:1003B000BF90AF909F908F907F906F905F904F9085
:1003C0003F902F9008950C9433040C945A04FF929C
:1003D0000F931F93CF93DF93EC01062FF72E188214
:1003E0000E94330410E08823D9F00E940704882378
:1003F000B9F00E940E04803210F089931F5FE02F45
:10040000FF2D482F50E02191222339F0022E000CBD
:10041000330B42175307B9F702C08D3051F71882DA
:10042000812FDF91CF911F910F91FF9008950F932E
:100430001F93CF93DF938C01EC01699170E080E012
:1004400090E00E944F010C5F1F4F8EE20E945D04FE
:10045000699170E080E090E00E944F01C017D107E1
:10046000A1F780E291E0DF91CF911F910F910C9461
:100470002101CF93DF9300D000D0CDB7DEB71C822F
:100480001B822B813C8128173907A8F41A82198214
:1004900029813A81283E334038F429813A812F5FFF
:1004A0003F4F3A832983F4CF2B813C812F5F3F4F0D
:1004B0003C832B83E6CF0F900F900F900F90DF912E
:1004C000CF910895219A29980895299A08952998F5
:1004D000089585B18695817090E008950F931F93DC
:1004E000CF93DF938C010E946702E80189918823F2
:1004F000D9F08E3229F40E9465028AEF90E006C09E
:100500008D3259F40E9465028EEE92E00E9439020B
:100510000E94670284E690E004C0803239F788EEDA
:1005200093E00E943902E2CFDF91CF911F910F91AA
:1005300008951092C00087E690E09093C5008093E4
:10054000C400E1ECF0E088E1808386E08093C200A3
:100550008081806A808308951F920F920FB60F9258
:1005600011242F933F938F939F93EF93FF93809149
:100570002A01882309F4F0C08091C60090912901D6
:10058000992309F4E3C090EE980F9F3518F08D3051
:1005900009F059C0209126019091270130E0291BD4
:1005A0003109215031092F733327232B61F0E0915A
:1005B0002701F0E0E55DFE4F8083909127019F5F6A
:1005C0009F7390932701209124019091250130E0A1
:1005D000291B3109215031092F733327232B89F02F
:1005E000E0912501F0E0E559FE4F808390912501CF
:1005F0009F5F9F73909325019091C10090629093AB
:10060000C1008D3009F0C5C08091240120912501E1
:1006100090E0821B910901978F739927892B69F0CC
:10062000E0912501F0E0E559FE4F8AE0808380915A
:1006300025018F5F8F7380932501809128018F5F43
:1006400080932801A6C0883011F08F37C1F58091C2
:1006500027012091260190E0821B91098F73992731
:10066000892B09F496C0E0912701F0E0E55DFE4F8B
:1006700080818091270181508F7380932701809121
:1006800024012091250190E0821B910901978F732D
:100690009927892B09F47DC0E0912501F0E0E55907
:1006A000FE4F8FE78083809125018F5F8F7380934A
:1006B00025018091C10080628093C1006AC08430AE
:1006C00009F067C0809127012091260190E0821BEC
:1006D00091098F739927892B31F1E0912701F0E07F
:1006E000E55DFE4F80818D30F1F0809126012091F3
:1006F000270190E0821B910901978F739927892B1D
:1007000091F0E0912701F0E0E55DFE4F8DE0808300
:10071000809127018F5F8F7380932701809128013B
:100720008F5F80932801809126012091270190E01E
:10073000821B910901978F739927892B51F1E091C1
:100740002701F0E0E55DFE4F84E019C0833009F534
:1007500081E0809329011DC080912601209127010D
:1007600090E0821B910901978F739927892B79F06B
:10077000E0912701F0E08091C600E55DFE4F8083A7
:10078000809127018F5F8F738093270102C0809132
:10079000C600FF91EF919F918F913F912F910F9004
:1007A0000FBE0F901F9018951F920F920FB60F92C9
:1007B00011242F938F939F93EF93FF9380912501A3
:1007C0002091240190E0821B91098F739927892B36
:1007D00079F0E0912401F0E0E559FE4F80818093AB
:1007E000C600809124018F5F8F738093240105C020
:1007F0008091C1008F7D8093C100FF91EF919F9107
:100800008F912F910F900FBE0F901F901895809190
:10081000270190912601891B8F73089580912701EC
:100820002091260190E0821B91098F739927892BD3
:10083000C1F0E0912601F0E0E55DFE4F80819091EE
:1008400026019F5F9F739093260190912A0199231F
:1008500049F08D3039F490912801915090932801FE
:10086000089580E0089581E080932A018091270116
:100870002091260190E0821B91098F739927892B83
:10088000B1F0E0912601F0E0E55DFE4F808184301B
:1008900071F410922901E0912601F0E0E55DFE4F30
:1008A0008081809126018F5F8F73809326018091D4
:1008B000290108958091280108950FB607FE0EC002
:1008C000209124019091250130E0291B310921500C
:1008D00031092F733327232B99F30DC02091240165
:1008E0009091250130E0291B3109215031092F73E6
:1008F0003327232B61F0E0912501F0E0E559FE4F0D
:100900008083809125018F5F8F7380932501809173
:10091000C10080628093C10008951F93CF93DF933D
:10092000EC0180E011E0180FFE01E80FF11D80815D
:10093000882321F00E945D04812FF4CFDF91CF91B5
:100940001F9108951F93CF93DF93EC0180E011E096
:10095000180FFE01E80FF11D8491882321F00E94F9
:100960005D04812FF4CFDF91CF911F910895052E63
:1009700097FB1EF400940E94CE0457FD07D00E94FE
:10098000E10407FC03D04EF40C94CE04509540953E
:10099000309521953F4F4F4F5F4F0895909580952B
:1009A000709561957F4F8F4F9F4F08950E9403056B
:1009B000A59F900DB49F900DA49F800D911D1124B3
:1009C0000895A1E21A2EAA1BBB1BFD010DC0AA1F90
:1009D000BB1FEE1FFF1FA217B307E407F50720F0A8
:1009E000A21BB30BE40BF50B661F771F881F991F23
:1009F0001A9469F760957095809590959B01AC016C
:100A0000BD01CF010895A29FB001B39FC001A39F74
:100A1000700D811D1124911DB29F700D811D112437
:080A2000911D0895F894FFCF29
:100A2800030B443100802500002D00040B443000E6
:100A3800802500002D0002060024F400010C6174DA
:080A48006D656761333238006F
:100A500024005345522034383620485734202D2D59
:100A600020547920466F737465720A0D000A0D00D8
:040A70000D0A00006B
:00000001FF
