:100000000C9434000C9451000C9451000C94510049
:100010000C9451000C9451000C9451000C9451001C
:100020000C9451000C9451000C9451000C9451000C
:100030000C9451000C9451000C9451000C945100FC
:100040000C9451000C9451000C94B8020C94E003F1
:100050000C9451000C9451000C9451000C945100DC
:100060000C9451000C94510011241FBECFEFD8E026
:10007000DEBFCDBF11E0A0E0B1E0E8E6FAE002C0EB
:1000800005900D92A432B107D9F721E0A4E2B1E0C6
:1000900001C01D92AB3AB207E1F70E9453000C94E5
:1000A0001E050C940000CF93DF93CDB7DEB70E94FE
:1000B00027010E946E020E947D0082E091E00E9472
:1000C0002D010E9471020E94AA0000000E9493006C
:1000D000892BE1F30E94BB00DC01CB01BC01CD0107
:1000E0000E945B018DE191E00E942D010E9473024C
:1000F00084E690E00E944502E4CFCF93DF93CDB732
:10010000DEB78AE790E02AE730E0F9012081207825
:10011000FC0120838CE790E028ECFC0120830000A8
:10012000DF91CF910895CF93DF93CDB7DEB78AE704
:1001300090E0FC018081082E000C990B80749927B7
:10014000892B19F080E090E002C081E090E0DF911F
:10015000CF910895CF93DF93CDB7DEB78AE790E0D4
:100160002AE730E0F9012081206CFC0120830000A7
:10017000DF91CF910895CF93DF93CDB7DEB760972E
:100180000FB6F894DEBF0FBECDBF19821A821B8254
:100190001C821D821E821F82188688E790E0FC0167
:1001A0008081082E000C990BAA0BBB0B89879A87BC
:1001B000AB87BC8789E790E0FC018081082E000CAA
:1001C000990B982F8827092E000CAA0BBB0B8D8743
:1001D0009E87AF87B88B2D853E854F855889898549
:1001E0009A85AB85BC85822B932BA42BB52B8D8355
:1001F0009E83AF83B8872D813E814F81588585E6E8
:1002000090E0DC010E94E204DC01CB0124E630E056
:1002100040E050E0BC01CD010E94C304DA01C901F5
:1002200081519140A109B10989839A83AB83BC8331
:1002300089819A81AB81BC81BC01CD0160960FB6EA
:10024000F894DEBF0FBECDBFDF91CF9108950E941D
:10025000A502789408950C946904CF93DF93EC0180
:100260008991882319F00E946904FACFDF91CF9118
:100270000895CF93C82F90E024E0959587952A950F
:10028000E1F78A3010F4805D01C0895C0E94690446
:100290008C2F8F708A3010F0895C01C0805DCF9107
:1002A0000C946904CF93C82F892F0E9439018C2F99
:1002B000CF910C9439012F923F924F925F926F929F
:1002C0007F928F929F92AF92BF92CF92DF92EF92E6
:1002D000FF920F931F93CF93DF93CDB7DEB7639752
:1002E0000FB6F894DEBF0FBECDBF6B017C0197FF48
:1002F0000DC0F094E094D094C094C11CD11CE11CBA
:10030000F11C81E090E09B8B8A8B02C01B8A1A8AC9
:10031000FE0131965F018E01055F1F4FF98BE88B5F
:1003200066246394712C812C912CAAE0B0E0930197
:10033000A4010E94E2041B012C01C701B601910136
:10034000A2010E94C3049301A4010E94C304E8898E
:10035000F9892193F98BE88B822F220F990BAA0B35
:10036000BB0BC81AD90AEA0AFB0A310142010E176F
:100370001F07D9F68A899B89892B19F08DE20E9483
:10038000690420E030E0F80182918F01811106C0FC
:100390002115310519F4EA15FB0529F4805D0E9449
:1003A000690421E030E00A151B0569F763960FB672
:1003B000F894DEBF0FBECDBFDF91CF911F910F919B
:1003C000FF90EF90DF90CF90BF90AF909F908F9075
:1003D0007F906F905F904F903F902F9008950C9476
:1003E0003F040C946604FF920F931F93CF93DF9307
:1003F000EC01062FF72E18820E943F0410E088239C
:10040000D9F00E9413048823B9F00E941A048032A4
:1004100010F089931F5FE02FFF2D482F50E02191AE
:10042000222339F0022E000C330B42175307B9F781
:1004300002C08D3051F71882812FDF91CF911F912B
:100440000F91FF9008950F931F93CF93DF938C012B
:10045000EC01699170E080E090E00E945B010C5F2C
:100460001F4F8EE20E946904699170E080E090E085
:100470000E945B01C017D107A1F780E291E0DF91F4
:10048000CF911F910F910C942D01CF93DF9300D04A
:1004900000D0CDB7DEB71C821B822B813C81281790
:1004A0003907A8F41A82198229813A81283E3340FB
:1004B00038F429813A812F5F3F4F3A832983F4CF63
:1004C0002B813C812F5F3F4F3C832B83E6CF0F90E6
:1004D0000F900F900F90DF91CF910895219A299856
:1004E0000895299A08952998089585B1869581706F
:1004F00090E008950F931F93CF93DF938C010E9498
:100500007302E80189918823D9F08E3229F40E9480
:1005100071028AEF90E006C08D3259F40E94710298
:100520008EEE92E00E9445020E94730284E690E003
:1005300004C0803239F788EE93E00E944502E2CF92
:10054000DF91CF911F910F9108951092C00087E61F
:1005500090E09093C5008093C400E1ECF0E088E166
:10056000808386E08093C2008081806A80830895C2
:100570001F920F920FB60F9211242F933F938F93D8
:100580009F93EF93FF9380912A01882309F4F0C091
:100590008091C60090912901992309F4E3C090EE5F
:1005A000980F9F3518F08D3009F059C02091260121
:1005B0009091270130E0291B3109215031092F7317
:1005C0003327232B61F0E0912701F0E0E55DFE4F3A
:1005D0008083909127019F5F9F73909327012091C3
:1005E00024019091250130E0291B31092150310966
:1005F0002F733327232B89F0E0912501F0E0E55993
:10060000FE4F8083909125019F5F9F7390932501FA
:100610009091C10090629093C1008D3009F0C5C0E7
:10062000809124012091250190E0821B910901977E
:100630008F739927892B69F0E0912501F0E0E55946
:10064000FE4F8AE08083809125018F5F8F738093B6
:100650002501809128018F5F80932801A6C08830F2
:1006600011F08F37C1F5809127012091260190E08C
:10067000821B91098F739927892B09F496C0E09109
:100680002701F0E0E55DFE4F8081809127018150D8
:100690008F7380932701809124012091250190E0A0
:1006A000821B910901978F739927892B09F47DC0CB
:1006B000E0912501F0E0E559FE4F8FE780838091BE
:1006C00025018F5F8F73809325018091C100806227
:1006D0008093C1006AC0843009F067C0809127010F
:1006E0002091260190E0821B91098F739927892B15
:1006F00031F1E0912701F0E0E55DFE4F80818D3022
:10070000F1F0809126012091270190E0821B910950
:1007100001978F739927892B91F0E0912701F0E0E1
:10072000E55DFE4F8DE08083809127018F5F8F73A1
:1007300080932701809128018F5F80932801809109
:1007400026012091270190E0821B910901978F7368
:100750009927892B51F1E0912701F0E0E55DFE4FEB
:1007600084E019C0833009F581E0809329011DC020
:10077000809126012091270190E0821B9109019729
:100780008F739927892B79F0E0912701F0E0809110
:10079000C600E55DFE4F8083809127018F5F8F73D8
:1007A0008093270102C08091C600FF91EF919F9135
:1007B0008F913F912F910F900FBE0F901F90189522
:1007C0001F920F920FB60F9211242F938F939F9326
:1007D000EF93FF93809125012091240190E0821BEB
:1007E00091098F739927892B79F0E0912401F0E02A
:1007F000E559FE4F80818093C600809124018F5F70
:100800008F738093240105C08091C1008F7D8093F8
:10081000C100FF91EF919F918F912F910F900FBE8B
:100820000F901F9018958091270190912601891BA8
:100830008F730895809127012091260190E0821BFB
:1008400091098F739927892BC1F0E0912601F0E07F
:10085000E55DFE4F8081909126019F5F9F7390938D
:10086000260190912A01992349F08D3039F4909115
:100870002801915090932801089580E0089581E027
:1008800080932A01809127012091260190E0821B0C
:1008900091098F739927892BB1F0E0912601F0E03F
:1008A000E55DFE4F8081843071F410922901E09162
:1008B0002601F0E0E55DFE4F8081809126018F5F8B
:1008C0008F738093260180912901089580912801DA
:1008D00008950FB607FE0EC02091240190912501C6
:1008E00030E0291B3109215031092F733327232B85
:1008F00099F30DC0209124019091250130E0291B2E
:100900003109215031092F733327232B61F0E091F6
:100910002501F0E0E559FE4F8083809125018F5F2E
:100920008F73809325018091C10080628093C10004
:1009300008951F93CF93DF93EC0180E011E0180F2F
:10094000FE01E80FF11D8081882321F00E946904D7
:10095000812FF4CFDF91CF911F9108951F93CF93F3
:10096000DF93EC0180E011E0180FFE01E80FF11DAC
:100970008491882321F00E946904812FF4CFDF91B4
:10098000CF911F910895052E97FB1EF400940E94AD
:10099000DA0457FD07D00E94ED0407FC03D04EF4A3
:1009A0000C94DA0450954095309521953F4F4F4F68
:1009B0005F4F089590958095709561957F4F8F4F0B
:1009C0009F4F08950E940F05A59F900DB49F900D15
:1009D000A49F800D911D11240895A1E21A2EAA1B37
:1009E000BB1BFD010DC0AA1FBB1FEE1FFF1FA217DF
:1009F000B307E407F50720F0A21BB30BE40BF50BDC
:100A0000661F771F881F991F1A9469F76095709564
:100A1000809590959B01AC01BD01CF010895A29FE7
:100A2000B001B39FC001A39F700D811D1124911DC2
:100A3000B29F700D811D1124911D0895F894FFCF70
:100A4000030B443100802500002D00040B443000CE
:100A5000802500002D0002060024F400010C6174C2
:080A60006D6567613332380057
:100A680024005345522034383620485734202D2D41
:100A780020547920466F737465720A0D000A0D00C0
:040A88000D0A000053
:00000001FF
