:100000000C9434000C9451000C9451000C94510049
:100010000C9451000C9451000C9451000C9451001C
:100020000C9451000C9451000C9451000C9451000C
:100030000C9451000C9451000C9453000C945100FA
:100040000C9451000C9451000C947E010C94AF015F
:100050000C9451000C9451000C94E9000C94510044
:100060000C9451000C94510011241FBECFEFD8E026
:10007000DEBFCDBF11E0A0E0B1E0E2E2F9E002C0F6
:1000800005900D92A632B107D9F721E0A6E2B1E0C2
:1000900001C01D92A93FB207E1F70E94FA030C9438
:1000A0008F040C9400001F920F920FB60F92112430
:1000B0002F933F938F939F9320912C0130912D018B
:1000C00080912801909129012817390749F08091E2
:1000D0002C0190912D01019690932D0180932C017C
:1000E00020912E0130912F0180912A0190912B01B6
:1000F0002817390749F080912E0190912F01019620
:1001000090932F0180932E019F918F913F912F917A
:100110000F900FBE0F901F90189589EF87BD82E05A
:1001200084BD93E095BD80936E0008958230910563
:1001300050F4F894880F991FFC01E45DFE4F808114
:1001400091817894089580E090E00895823091053F
:1001500098F4880F991FFC01E45DFE4F40815181A6
:10016000FC01E85DFE4F81E090E020813181421783
:10017000530721F080E0089580E090E008950F9308
:100180001F93CF93DF93EC018B0180912601909117
:100190002701892B41F40E948D0081E090E090932B
:1001A000270180932601C230D10570F48FB7F894EF
:1001B000CC0FDD1FFE01E85DFE4F11830083C45D9F
:1001C000DE4F198218828FBFDF91CF911F910F915F
:1001D00008951F920F920FB60F9211248F939F9341
:1001E000EF93FF93E091780180913701E81720F0B9
:1001F000FB98109234011AC080913501909136011C
:1002000092BD81BD81E08E0F80937801F0E0E85CC3
:10021000FE4F808180BD809135019091360101961D
:100220009093360180933501FA9AF99AFF91EF91F4
:100230009F918F910F900FBE0F901F901895209156
:1002400034012111FCCF909336018093350181E078
:10025000809334011092780140933701FB0128E329
:1002600031E0D9018A2F821B841718F481918D9374
:10027000F9CFFB9A0895FB01861B970B50E0DC0138
:10028000AE0FBF1F9F01261B370B2417350748F4FD
:10029000F999FECFB2BDA1BD219120BDFA9AF99A7C
:1002A000EECF0895209134012111FCCFFB01861B74
:1002B000970B2E2F261B241748F49C012E0F3F1F4F
:1002C00032BD21BDF89A20B52193F3CF08958091D6
:1002D000340190E008951092C00087E690E090937A
:1002E000C5008093C400E1ECF0E088E1808386E003
:1002F0008093C2008081806A808308951F920F924C
:100300000FB60F9211242F938F939F93EF93FF9328
:10031000809132012091330190E0821B9109019775
:100320008F739927892B79F0E0913301F0E0809168
:10033000C600E758FE4F8083809133018F5F8F7333
:100340008093330102C08091C600FF91EF919F918D
:100350008F912F910F900FBE0F901F9018951F92A5
:100360000F920FB60F9211242F938F939F93EF93B9
:10037000FF93809131012091300190E0821B91091F
:100380008F739927892B79F0E0913001F0E0E754E1
:10039000FE4F80818093C600809130018F5F8F7304
:1003A0008093300105C08091C1008F7D8093C10092
:1003B000FF91EF919F918F912F910F900FBE0F9012
:1003C0001F9018958091330190913201891B8F7392
:1003D0000895809133012091320190E0821B9109B0
:1003E0008F739927892B69F0E0913201F0E0E7588B
:1003F000FE4F8081909132019F5F9F7390933201F5
:10040000089580E008950FB607FE0EC020913001D8
:100410009091310130E0291B3109215031092F73AE
:100420003327232B99F30DC0209130019091310196
:1004300030E0291B3109215031092F733327232B39
:1004400061F0E0913101F0E0E754FE4F808380914C
:1004500031018F5F8F73809331018091C100806281
:100460008093C10008951F93CF93DF93EC0190E038
:1004700011E0190FFE01E90FF11D8081882321F0A1
:100480000E940302912FF4CFDF91CF911F91089525
:100490001F93CF93DF93EC0190E011E0190FFE0161
:1004A000E90FF11D8491882321F00E940302912F0E
:1004B000F4CFDF91CF911F9108950E946B01789442
:1004C00008950C940302CF93DF93EC018991882364
:1004D00019F00E940302FACFDF91CF910895CF93D4
:1004E000C82F90E024E0959587952A95E1F78A300A
:1004F00010F4805D01C0895C0E9403028C2F8F7014
:100500008A3010F0895C01C0805DCF910C940302A9
:10051000CF93C82F892F0E946F028C2FCF910C94FC
:100520006F022F923F924F925F926F927F928F92C3
:100530009F92AF92BF92CF92DF92EF92FF920F9372
:100540001F93CF93DF93CDB7DEB763970FB6F894C1
:10055000DEBF0FBECDBF6B017C0197FF0DC0F094D5
:10056000E094D094C094C11CD11CE11CF11C81E02A
:1005700090E09B8B8A8B02C01B8A1A8A8E010F5FC8
:100580001F4FFE013B96F98BE88B5801662463945C
:10059000712C812C912CAAE0B0E09301A4010E945F
:1005A00053041B012C01C701B6019101A2010E9455
:1005B00034049301A4010E943404F50121935F01E6
:1005C000822F220F990BAA0BBB0BC81AD90AEA0A71
:1005D000FB0A3101420188899989E817F907D9F6A0
:1005E000EA89FB89EF2B11F08DE201C080E20E94C5
:1005F0000302CE010B967C0120E030E0F7018291EE
:100600007F01811106C02115310519F4E017F107AA
:1006100029F4805D0E94030221E030E0E016F1063B
:1006200069F763960FB6F894DEBF0FBECDBFDF91BA
:10063000CF911F910F91FF90EF90DF90CF90BF90DF
:10064000AF909F908F907F906F905F904F903F9072
:100650002F9008952F923F924F925F926F927F92C8
:100660008F929F92AF92BF92CF92DF92EF92FF92C2
:100670000F931F93CF93DF93CDB7DEB768970FB675
:10068000F894DEBF0FBECDBF8C016115710509F472
:1006900098C0412C512C3201CB01A0E0B0E08B8BF3
:1006A0009C8BAD8BBE8BDE0111961D018B899C89C5
:1006B000AD89BE89481659066A067B0608F081C0D6
:1006C000812F0E946F02802F807F0E946F0280E244
:1006D0000E9461025801C12CD12C7601B1016C0D30
:1006E0007D1D41E0C5010E945201BFEFAB1ABB0A5C
:1006F000EFEFCE1ADE0AEE0AFE0AFFEF4F1A5F0A8C
:100700006F0A7F0A8B899C89AD89BE894816590674
:100710006A067B0670F0DA8AC98A48019FE089225E
:10072000992400E010E09601280D391D388F2F8B99
:1007300006C0C5018F709927892B81F6ECCF08156B
:10074000190528F02F89388D0217130728F082E247
:1007500091E00E9463020BC0F801E819F909E20D6B
:10076000F31D80810E946F0280E20E9461020F5F90
:100770001F4F0031110519F700E010E008151905A9
:1007800031F080E20E9461020F5F1F4FF7CF8101BD
:10079000C8018219930929893A898217930758F465
:1007A000D8018D918D0190EE980F903608F08EE271
:1007B0000E946102EDCF8EE091E00E94630285010C
:1007C00075CF68960FB6F894DEBF0FBECDBFDF9130
:1007D000CF911F910F91FF90EF90DF90CF90BF903E
:1007E000AF909F908F907F906F905F904F903F90D1
:1007F0002F900895CF93DF931F92CDB7DEB70E945D
:100800005D0200E010E041E0BE016F5F7F4FC80174
:100810000E94520189818A3A89F40F5F1F4F0115A6
:1008200082E0180781F780E091E00E94630260E0B7
:1008300071E080E090E00E942A03FFCF81E191E027
:100840000E9463028AEA898300E010E041E0BE0171
:100850006F5F7F4FC8010E943B010F5F1F4F011563
:1008600082E0180799F7DFCF052E97FB1EF400945E
:100870000E944B0457FD07D00E945E0407FC03D082
:100880004EF40C944B0450954095309521953F4F74
:100890004F4F5F4F089590958095709561957F4F6C
:1008A0008F4F9F4F08950E948004A59F900DB49F85
:1008B000900DA49F800D911D11240895A1E21A2E80
:1008C000AA1BBB1BFD010DC0AA1FBB1FEE1FFF1FF4
:1008D000A217B307E407F50720F0A21BB30BE40B44
:1008E000F50B661F771F881F991F1A9469F760958B
:1008F0007095809590959B01AC01BD01CF01089545
:10090000A29FB001B39FC001A39F700D811D112450
:10091000911DB29F700D811D1124911D0895F894B1
:02092000FFCF07
:1009220044756D70696E6720454550524F4D0D0AF2
:100932000045726173696E6720454550524F4D0DF7
:060942000A002020200045
:00000001FF
