:100000000C9434000C943E000C943E000C943E0082
:100010000C943E000C943E000C943E000C943E0068
:100020000C943E000C943E000C943E000C943E0058
:100030000C943E000C943E000C943E000C943E0048
:100040000C943E000C943E000C943E000C943E0038
:100050000C943E000C943E000C943E000C943E0028
:100060000C943E000C943E0011241FBECFEFD8E04C
:10007000DEBFCDBF0E9453000C945F000C940000C3
:1000800085E8809385008EEE8093840080918000C7
:100090008093800080918100856080938100B09979
:1000A000FECFB0980895219A299A80ED97E00E949A
:1000B0004000299880ED97E00E944000F5CFF89429
:0200C000FFCF70
:00000001FF
