:100000000C9434000C943E000C943E000C943E0082
:100010000C943E000C943E000C943E000C943E0068
:100020000C943E000C943E000C943E000C943E0058
:100030000C943E000C943E000C943E000C943E0048
:100040000C943E000C943E000C943E000C943E0038
:100050000C943E000C943E000C943E000C943E0028
:100060000C943E000C943E0011241FBECFEFD8E04C
:10007000DEBFCDBF0E9452000C945A000C940000C9
:1000800085E8809385008EEE809384001092800036
:1000900082E080938100B19BFECF1092810084E0CA
:1000A00086BB0895219A299A0E94400029980E94AF
:0800B0004000F9CFF894FFCFE6
:00000001FF
