:100000000C9434000C9451000C9451000C94510049
:100010000C9451000C9451000C9451000C9451001C
:100020000C9451000C9451000C9451000C9451000C
:100030000C9451000C9451000C9451000C945100FC
:100040000C9451000C9451000C9427020C944F0313
:100050000C9451000C9451000C9451000C945100DC
:100060000C9451000C94510011241FBECFEFD8E026
:10007000DEBFCDBF11E0A0E0B1E0E8E8F9E002C0EA
:1000800005900D92A032B107D9F721E0A0E2B1E0CE
:1000900001C01D92A73AB207E1F70E9432040C9406
:1000A000AE040C940000EAE7F0E080818078808361
:1000B00088EC80937C00089580917A0082958695E3
:1000C0008695837091E08927817090E00895EAE732
:1000D000F0E08081806C8083089520917800809189
:1000E0007900082E000C990B982F8827092E000CF8
:1000F000AA0BBB0B422F220F550B660B770B9A01F5
:10010000AB01282B392B4A2B5B2BA5E6B0E00E94D4
:10011000720424E630E040E050E00E945304CA013B
:10012000B901615171408109910908950E94140239
:10013000789408950C94D803CF93DF93EC018991C0
:10014000882319F00E94D803FACFDF91CF91089548
:10015000CF93C82F90E024E0959587952A95E1F7F5
:100160008A3010F4805D01C0895C0E94D8038C2F16
:100170008F708A3010F0895C01C0805DCF910C9443
:10018000D803CF93C82F892F0E94A8008C2FCF911E
:100190000C94A8002F923F924F925F926F927F92A1
:1001A0008F929F92AF92BF92CF92DF92EF92FF9287
:1001B0000F931F93CF93DF93CDB7DEB763970FB63F
:1001C000F894DEBF0FBECDBF6B017C0197FF0DC061
:1001D000F094E094D094C094C11CD11CE11CF11C9B
:1001E00081E090E09B8B8A8B02C01B8A1A8AFE01F9
:1001F00031965F018E01055F1F4FF98BE88B6624F6
:100200006394712C812C912CAAE0B0E09301A4019D
:100210000E9472041B012C01C701B6019101A201C9
:100220000E9453049301A4010E945304E889F989B0
:100230002193F98BE88B822F220F990BAA0BBB0B12
:10024000C81AD90AEA0AFB0A310142010E171F0730
:10025000D9F68A899B89892B19F08DE20E94D803EF
:1002600020E030E0F80182918F01811106C0211554
:10027000310519F4EA15FB0529F4805D0E94D803C5
:1002800021E030E00A151B0569F763960FB6F89474
:10029000DEBF0FBECDBFDF91CF911F910F91FF90B9
:1002A000EF90DF90CF90BF90AF909F908F907F9016
:1002B0006F905F904F903F902F9008950C94AE03F5
:1002C0000C94D503FF920F931F93CF93DF93EC0110
:1002D000062FF72E18820E94AE0310E08823D9F073
:1002E0000E9482038823B9F00E948903803210F0B3
:1002F00089931F5FE02FFF2D482F50E0219122238B
:1003000039F0022E000C330B42175307B9F702C025
:100310008D3051F71882812FDF91CF911F910F916E
:10032000FF9008950F931F93CF93DF938C01EC01FF
:10033000699170E080E090E00E94CA000C5F1F4F5E
:100340008EE20E94D803699170E080E090E00E9404
:10035000CA00C017D107A1F78DE191E0DF91CF91DD
:100360001F910F910C949C00CF93DF9300D000D08D
:10037000CDB7DEB71C821B822B813C812817390741
:10038000A8F41A82198229813A81283E334038F430
:1003900029813A812F5F3F4F3A832983F4CF2B8104
:1003A0003C812F5F3F4F3C832B83E6CF0F900F9014
:1003B0000F900F90DF91CF910895219A2998089579
:1003C000299A08952998089585B18695817090E0BD
:1003D00008950F931F93CF93DF938C010E94E20146
:1003E000E80189918823D9F08E3229F40E94E00136
:1003F0008AEF90E006C08D3259F40E94E0018EEE43
:1004000092E00E94B4010E94E20184E690E004C000
:10041000803239F788EE93E00E94B401E2CFDF9199
:10042000CF911F910F9108951092C00087E690E040
:100430009093C5008093C400E1ECF0E088E18083F4
:1004400086E08093C2008081806A808308951F9235
:100450000F920FB60F9211242F933F938F939F9378
:10046000EF93FF9380912601882309F4F0C08091D7
:10047000C60090912501992309F4E3C090EE980FEE
:100480009F3518F08D3009F059C0209122019091CC
:10049000230130E0291B3109215031092F73332703
:1004A000232B61F0E0912301F0E0E95DFE4F8083B2
:1004B000909123019F5F9F739093230120912001CE
:1004C0009091210130E0291B3109215031092F730E
:1004D0003327232B89F0E0912101F0E0E959FE4F09
:1004E0008083909121019F5F9F7390932101909150
:1004F000C10090629093C1008D3009F0C5C0809119
:1005000020012091210190E0821B910901978F73B6
:100510009927892B69F0E0912101F0E0E959FE4F1C
:100520008AE08083809121018F5F8F738093210106
:10053000809124018F5F80932401A6C0883011F040
:100540008F37C1F5809123012091220190E0821B19
:1005500091098F739927892B09F496C0E0912301A3
:10056000F0E0E95DFE4F80818091230181508F731F
:1005700080932301809120012091210190E0821B32
:10058000910901978F739927892B09F47DC0E09118
:100590002101F0E0E959FE4F8FE78083809121012E
:1005A0008F5F8F73809321018091C100806280935F
:1005B000C1006AC0843009F067C080912301209196
:1005C000220190E0821B91098F739927892B31F1C9
:1005D000E0912301F0E0E95DFE4F80818D30F1F084
:1005E000809122012091230190E0821B91090197C3
:1005F0008F739927892B91F0E0912301F0E0E95D59
:10060000FE4F8DE08083809123018F5F8F738093F5
:100610002301809124018F5F809324018091220126
:100620002091230190E0821B910901978F739927F4
:10063000892B51F1E0912301F0E0E95DFE4F84E068
:1006400019C0833009F581E0809325011DC0809198
:1006500022012091230190E0821B910901978F7361
:100660009927892B79F0E0912301F0E08091C60071
:10067000E95DFE4F8083809123018F5F8F738093AC
:10068000230102C08091C600FF91EF919F918F914D
:100690003F912F910F900FBE0F901F9018951F92B2
:1006A0000F920FB60F9211242F938F939F93EF9376
:1006B000FF93809121012091200190E0821B9109FC
:1006C0008F739927892B79F0E0912001F0E0E959A7
:1006D000FE4F80818093C600809120018F5F8F73D1
:1006E0008093200105C08091C1008F7D8093C1005F
:1006F000FF91EF919F918F912F910F900FBE0F90CF
:100700001F9018958091230190912201891B8F736E
:100710000895809123012091220190E0821B91098C
:100720008F739927892BC1F0E0912201F0E0E95DF8
:10073000FE4F8081909122019F5F9F7390932201D1
:1007400090912601992349F08D3039F4909124013C
:10075000915090932401089580E0089581E0809362
:100760002601809123012091220190E0821B9109B2
:100770008F739927892BB1F0E0912201F0E0E95DB8
:10078000FE4F8081843071F410922501E0912201A6
:10079000F0E0E95DFE4F8081809122018F5F8F73D1
:1007A000809322018091250108958091240108956C
:1007B0000FB607FE0EC0209120019091210130E07C
:1007C000291B3109215031092F733327232B99F32A
:1007D0000DC0209120019091210130E0291B3109A9
:1007E000215031092F733327232B61F0E091210130
:1007F000F0E0E959FE4F8083809121018F5F8F7374
:10080000809321018091C10080628093C10008958E
:100810001F93CF93DF93EC0180E011E0180FFE01EE
:10082000E80FF11D8081882321F00E94D803812FD9
:10083000F4CFDF91CF911F9108951F93CF93DF9352
:10084000EC0180E011E0180FFE01E80FF11D84912A
:10085000882321F00E94D803812FF4CFDF91CF911C
:100860001F9108950E9496000E94DD010E9453008E
:1008700082E091E00E949C000E94E0010E946700DB
:100880000E945C00892BE1F30E946D000E94CA0067
:100890008AE191E00E949C000E94E20188EE93E0D0
:1008A0000E94B401E9CF052E97FB1EF400940E942C
:1008B0006A0457FD07D00E947D0407FC03D04EF464
:1008C0000C946A0450954095309521953F4F4F4FB9
:1008D0005F4F089590958095709561957F4F8F4FEC
:1008E0009F4F08950E949F04A59F900DB49F900D67
:1008F000A49F800D911D11240895A1E21A2EAA1B18
:10090000BB1BFD010DC0AA1FBB1FEE1FFF1FA217BF
:10091000B307E407F50720F0A21BB30BE40BF50BBC
:10092000661F771F881F991F1A9469F76095709545
:10093000809590959B01AC01BD01CF010895A29FC8
:10094000B001B39FC001A39F700D811D1124911DA3
:10095000B29F700D811D1124911D0895F894FFCF51
:10096000030B443100802500002D00040B443000AF
:10097000802500002D0002060024F400010C6174A3
:080980006D6567613332380038
:1009880024005345522034383620485734202D2D22
:1009980020547920466F737465720A0D000D0A00A1
:00000001FF
