:100000000C9444000C9461000C9461000C94610009
:100010000C9461000C9461000C9461000C946100DC
:100020000C9461000C9461000C9461000C946100CC
:100030000C9461000C9461000C9461000C946100BC
:100040000C9461000C9461000C94F5010C94260250
:100050000C9461000C9461000C9461000C9461009C
:100060000C9461000C9461000101050109010D016E
:100070001101150119011D012101250129012D0180
:100080003101350139013D0111241FBECFEFD8E008
:10009000DEBFCDBF11E0A0E0B1E0E0EEF5E002C0D0
:1000A00005900D92A433B107D9F721E0A4E3B1E0A4
:1000B00001C01D92A83BB207E1F70E9463000C94B7
:1000C000DA020C940000CF93DF93CDB7DEB784E261
:1000D00090E024E230E0F90120812260FC012083DD
:1000E0000E94DC0180E091E00E94B9008AE00E9459
:1000F0004B018AE191E00E94B9008EED90EC0E94E4
:100100005F018AE191E00E94B9008DE191E00E94D7
:100110008B01FFCFCF93DF9300D000D000D0CDB7BD
:10012000DEB79E838D831A82198212C01C821B82C5
:1001300005C08B819C8101969C838B838B819C81E4
:10014000883E9340B0F389819A8101969A8389838E
:1001500029813A818D819E812817390738F3000063
:1001600026960FB6F894DEBF0FBECDBFDF91CF91BC
:100170000895CF93DF9300D000D0CDB7DEB79C8336
:100180008B831A8219820FC02B813C8189819A81CD
:10019000820F931FFC0180810E94E00189819A8176
:1001A00001969A8389832B813C8189819A81820F70
:1001B000931FFC018081882339F700000F900F9076
:1001C0000F900F90DF91CF910895CF93DF931F92FF
:1001D000CDB7DEB789838981882F90E0092E000C86
:1001E000AA0BBB0B40E050E02FE030E0841B950BE6
:1001F0002817390708F445C08C5C9F4FFC010C940C
:10020000D40280E30E94E00141C081E30E94E0014A
:100210003DC082E30E94E00139C083E30E94E00117
:1002200035C084E30E94E00131C085E30E94E00113
:100230002DC086E30E94E00129C087E30E94E0010F
:1002400025C088E30E94E00121C089E30E94E0010B
:100250001DC081E40E94E00119C082E40E94E00117
:1002600015C083E40E94E00111C084E40E94E00113
:100270000DC085E40E94E00109C086E40E94E0010F
:1002800005C085E291E00E94B900000000000F90D7
:10029000DF91CF910895CF93DF931F92CDB7DEB753
:1002A0008983898182958F700E94E50089818F7092
:1002B0000E94E50000000F90DF91CF910895CF9349
:1002C000DF9300D0CDB7DEB79A83898389819A8185
:1002D000892F99270E944B0189810E944B010000C0
:1002E0000F900F90DF91CF910895CF93DF9300D0BF
:1002F000CDB7DEB79A83898383E290E022E0FC01E8
:10030000208389819A810E948A0000000F900F90BB
:10031000DF91CF910895CF93DF9300D000D0CDB778
:10032000DEB79C838B831A82198230C02B813C817B
:1003300089819A81820F931FFC018081082E000C15
:10034000990B8D32910531F08E32910561F08097D5
:1003500099F017C08BE490E00E9475018AE090E06C
:100360000E9475010EC089E190E00E9475018AE04B
:1003700090E00E94750105C084E690E00E948A002A
:10038000000089819A8101969A8389832B813C811F
:1003900089819A81820F931FFC018081882331F625
:1003A00088EC90E00E948A0000000F900F900F9060
:1003B0000F90DF91CF9108950E94E2017894089503
:1003C0000C947A021092C00087E690E09093C500EA
:1003D0008093C400E1ECF0E088E1808386E08093C4
:1003E000C2008081806A808308951F920F920FB6A9
:1003F0000F9211242F938F939F93EF93FF938091EC
:1004000036012091370190E0821B910901978F738B
:100410009927892B79F0E0913701F0E08091C600AF
:10042000E85CFE4F8083809137018F5F8F738093EC
:10043000370102C08091C600FF91EF919F918F918B
:100440002F910F900FBE0F901F9018951F920F9233
:100450000FB60F9211242F938F939F93EF93FF93D7
:10046000809135012091340190E0821B91098F73B6
:100470009927892B79F0E0913401F0E0E858FE4F9C
:1004800080818093C600809134018F5F8F73809349
:10049000340105C08091C1008F7D8093C100FF9120
:1004A000EF919F918F912F910F900FBE0F901F9002
:1004B00018958091370190913601891B8F730895AB
:1004C000809137012091360190E0821B91098F7352
:1004D0009927892B69F0E0913601F0E0E85CFE4F46
:1004E0008081909136019F5F9F73909336010895AC
:1004F00080E008950FB607FE0EC020913401909160
:10050000350130E0291B3109215031092F73332780
:10051000232B99F30DC0209134019091350130E0E7
:10052000291B3109215031092F733327232B61F007
:10053000E0913501F0E0E858FE4F8083809135016D
:100540008F5F8F73809335018091C10080628093AB
:10055000C10008951F93CF93DF93EC0180E011E079
:10056000180FFE01E80FF11D8081882321F00E9401
:100570007A02812FF4CFDF91CF911F9108951F93BD
:10058000CF93DF93EC0180E011E0180FFE01E80F3C
:10059000F11D8491882321F00E947A02812FF4CFEB
:1005A000DF91CF911F910895EE0FFF1F0590F491F9
:0805B000E02D0994F894FFCF3F
:1005B800030B443100802500002D00040B4430005B
:1005C800802500002D0002060024F400010C61744F
:0805D8006D65676133323800E4
:1005E00053455234383620485733202D2D20547926
:1005F00020466F737465720A0D000A0D002D2D2DB3
:10060000202D2E2D00696E76616C696420696E70F4
:0406100075740000FD
:00000001FF
