:100000000C9434000C943E000C943E000C943E0082
:100010000C943E000C943E000C943E000C943E0068
:100020000C943E000C943E000C943E000C943E0058
:100030000C943E000C943E000C943E000C943E0048
:100040000C943E000C943E000C943E000C943E0038
:100050000C943E000C943E000C943E000C943E0028
:100060000C943E000C943E0011241FBECFEFD8E04C
:10007000DEBFCDBF0E9473000C949B000C94000067
:10008000CF93DF9300D000D000D0CDB7DEB79E83F2
:100090008D8381E090E09A83898314C081E090E0B1
:1000A0009C838B8305C08B819C8101969C838B8371
:1000B0008B819C81883E9340B0F389819A8101961F
:1000C0009A83898329813A818D819E8128173907F6
:1000D00028F3000026960FB6F894DEBF0FBECDBF02
:1000E000DF91CF910895CF93DF93CDB7DEB784E250
:1000F00090E024E230E0F90120812260FC012083BD
:1001000085E290E025E230E0F90120812260FC01E7
:10011000208380ED97E00E94400085E290E025E298
:1001200030E0F90120812D7FFC01208380ED97E0F4
:0A0130000E944000E5CFF894FFCFD5
:00000001FF
