:100000000C9444000C9461000C9461000C94610009
:100010000C9461000C9461000C9461000C946100DC
:100020000C9461000C9461000C9461000C946100CC
:100030000C9461000C9461000C9461000C946100BC
:100040000C9461000C9461000C941A010C944B0107
:100050000C9461000C9461000C9461000C9461009C
:100060000C9461000C946100A100A300A600A800FC
:10007000AA00AC00AE00B000B200B400B600B800F8
:10008000BA00BC00BE00C00011241FBECFEFD8E0F4
:10009000DEBFCDBF11E0A0E0B1E0E0E6F4E002C0D9
:1000A00005900D92A033B107D9F721E0A0E3B1E0AC
:1000B00001C01D92A43BB207E1F70E94F9010C9424
:1000C0001A020C940000CF93DF9300D000D0CDB77C
:1000D000DEB71C821B822B813C8128173907A8F4CC
:1000E0001A82198229813A81283E334038F42981C5
:1000F0003A812F5F3F4F3A832983F4CF2B813C8194
:100100002F5F3F4F3C832B83E6CF0F900F900F90D4
:100110000F90DF91CF910895CF93DF93EC018991F8
:10012000882319F00E940501FACFDF91CF9108953D
:1001300090E08031910530F5FC01EC5CFF4F0C94B0
:10014000140280E301C081E30C94050182E3FCCF3B
:1001500083E3FACF84E3F8CF85E3F6CF86E3F4CFE9
:1001600087E3F2CF88E3F0CF89E3EECF81E4ECCFF1
:1001700082E4EACF83E4E8CF84E4E6CF85E4E4CF09
:1001800086E4E2CF82E291E00C948C00CF93C82FFA
:1001900082958F700E9498008C2F8F70CF910C9455
:1001A0009800CF93C82F892F0E94C6008C2FCF9123
:1001B0000C94C60022E023B90C946300CF93DF9324
:1001C000EC0189918823B9F08D3249F08E3251F0DB
:1001D0008032B9F788EE93E00E946300F2CF8EEE92
:1001E00092E002C08AEF90E00E94DA0084E690E09C
:1001F0000E94DA00E6CF80ED97E0DF91CF910C947A
:1002000063000E940701789408950C949F01109256
:10021000C00087E690E09093C5008093C400E1ECB5
:10022000F0E088E1808386E08093C2008081806A6C
:10023000808308951F920F920FB60F9211242F936F
:100240008F939F93EF93FF9380913201209133011D
:1002500090E0821B910901978F739927892B79F080
:10026000E0913301F0E08091C600EC5CFE4F8083AA
:10027000809133018F5F8F738093330102C080912F
:10028000C600FF91EF919F918F912F910F900FBE1C
:100290000F901F9018951F920F920FB60F92112476
:1002A0002F938F939F93EF93FF9380913101209130
:1002B000300190E0821B91098F739927892B79F087
:1002C000E0913001F0E0EC58FE4F80818093C60051
:1002D000809130018F5F8F738093300105C08091D2
:1002E000C1008F7D8093C100FF91EF919F918F910D
:1002F0002F910F900FBE0F901F9018958091330192
:1003000090913201891B8F73089580913301209160
:10031000320190E0821B91098F739927892B69F034
:10032000E0913201F0E0EC5CFE4F8081909132016F
:100330009F5F9F7390933201089580E008950FB6F8
:1003400007FE0EC0209130019091310130E0291B51
:100350003109215031092F733327232B99F30DC015
:10036000209130019091310130E0291B3109215059
:1003700031092F733327232B61F0E0913101F0E035
:10038000EC58FE4F8083809131018F5F8F73809393
:1003900031018091C10080628093C10008951F9354
:1003A000CF93DF93EC0180E011E0180FFE01E80F1E
:1003B000F11D8081882321F00E949F01812FF4CFBD
:1003C000DF91CF911F9108951F93CF93DF93EC019D
:1003D00080E011E0180FFE01E80FF11D84918823E1
:1003E00021F00E949F01812FF4CFDF91CF911F91C7
:1003F0000895219A0E94010180E091E00E948C0002
:100400008AE00E94C60087E191E00E948C008EED98
:1004100090EC0E94D10087E191E00E948C008AE17B
:1004200091E00E94DE00FFCFEE0FFF1F0590F491D8
:08043000E02D0994F894FFCFC0
:10043800030B443100802500002D00040B443000DC
:10044800802500002D0002060024F400010C6174D0
:080458006D6567613332380065
:1004600053455234383620485733202D2D205479A7
:1004700020466F737465720A0D002D2D2D202D2ED0
:100480002D00696E76616C696420696E7075740008
:00000001FF
