:100000000C9447000C9464000C9464000C946400FD
:100010000C9464000C9464000C943B200C946400D9
:100020000C9464000C9464000C9464000C946417A9
:100030000C9464000C9464000C94AA010C94640069
:100040000C9464000C9464000C9471200C9499211D
:100050000C9464000C9464000C947A080C94640072
:100060000C9464000C9464004F2353237423BA232C
:100070000024B6242F262F262F262726BB16DA1675
:10008000E816F2160C17161721173A174417112401
:100090001FBECFEFD8E0DEBFCDBF13E0A0E0B1E0E0
:1000A000E0EEFDE402C005900D92A235B107D9F74C
:1000B00025E0A2E5B3E001C01D92A335B207E1F748
:1000C0000E947C220C94DA260C94000091E08F327E
:1000D00009F090E0892F089508958F929F92AF9232
:1000E000BF92EF92FF920F931F93CF93DF9300D0B5
:1000F00000D01F92CDB7DEB77C0180913101909185
:100100003201A0913301B091340189839A83AB838A
:10011000BC8348EB52E2BE016F5F7F4F83E00E94D9
:10012000E90F48EB52E2BE016F5F7F4F83E00E9410
:1001300000140E94600F0E940A168C010E94600F3A
:100140009801AC0160E070E083E00E94B5120E946B
:10015000600F0E940A168C0121E030E043EE52E06D
:10016000BC0183E00E94B5120F5F1F4F88EB94E043
:100170000E940A169C0148EB54E0B80183E00E94FB
:10018000B51288EB94E00E940A16080F191F21E0AF
:1001900030E043EE52E0B80183E00E94B512B801AE
:1001A0006F5F7F4FC70124E0969587952A95E1F709
:1001B0008A30910510F0895C01C0805D8D8321E05B
:1001C00030E0AE014B5F5F4F83E00E94B512B80193
:1001D0006E5F7F4F8E2D8F7097012F7033272A30DF
:1001E000310510F0895C01C0805D8D8321E030E035
:1001F000AE014B5F5F4F83E00E94B51283E00E9427
:1002000025140E9460024B015C0125EF820E21E063
:10021000921EA11CB11C0E946002681579058A0516
:100220009B05C9F783E00E9496108BED92E00E9437
:10023000B717B70180E090E00E94E5178CEF92E0DD
:100240000E94B7170F900F900F900F900F90DF91B3
:10025000CF911F910F91FF90EF90BF90AF909F9023
:100260008F90089581E08093560308958091410412
:10027000813461F480914204833541F481E090E05F
:1002800020914304253521F080E002C080E090E019
:10029000E1E4F4E020E03191230F34E0E435F307AA
:1002A000D1F7222311F080E090E0089562E170E040
:1002B00083E091E00E94EA1842E163E071E080E4AB
:1002C00090E00C94C0080E940909892BE1F742E1F3
:1002D00061E474E080E490E00E94F4080E9436013A
:1002E000892B49F40E94560142E161E474E080E404
:1002F00090E00E94F4081092560308950E940909A4
:10030000892B99F480915603882379F062E170E09B
:1003100081E494E00E94EA1842E161E474E080E440
:1003200090E00E94C00810925603089580915603F1
:10033000882379F062E170E081E494E00E94EA1899
:1003400042E161E474E080E490E00E94DD081092F4
:10035000560308951F920F920FB60F9211242F93F8
:100360003F938F939F93AF93BF93209161033091FD
:1003700062038091590390915A032817390749F075
:100380008091610390916203019690936203809340
:100390006103209163033091640380915B0390912A
:1003A0005C032817390749F0809163039091640337
:1003B0000196909364038093630380915D03909111
:1003C0005E03A0915F03B09160030196A11DB11D72
:1003D00080935D0390935E03A0935F03B0936003EB
:1003E000BF91AF919F918F913F912F910F900FBE31
:1003F0000F901F90189589EF87BD82E084BD93E030
:1004000095BD789480936E0010925D0310925E0308
:1004100010925F031092600308958230910550F4AA
:10042000F894880F991FFC01EF59FC4F808191814E
:100430007894089580E090E008958230910598F4D2
:10044000880F991FFC01EF59FC4F20813181FC017D
:10045000E75AFC4F81E090E04081518142175307F9
:1004600021F080E0089580E090E008950F931F93BD
:10047000CF93DF93EC018B01809157039091580348
:10048000892B41F40E94FB0181E090E09093580396
:1004900080935703C230D10570F48FB7F894CC0F16
:1004A000DD1FFE01E75AFC4F11830083CF59DC4F5B
:1004B000198218828FBFDF91CF911F910F910895FC
:1004C0008091570390915803892B41F40E94FB01BE
:1004D00081E090E09093580380935703F8946091E3
:1004E0005D0370915E0380915F0390916003789447
:1004F000089583E793E0089587E793E008958BE7F5
:1005000093E008958FE793E0089583E893E00895DA
:1005100044E150E060E00E960C94DF1508952F92B0
:100520003F924F925F926F927F928F929F92AF9283
:10053000BF92CF92DF92EF92FF920F931F93CF93D0
:10054000DF93CDB7DEB7E6970FB6F894DEBF0FBEE8
:10055000CDBF8C012A013B0119011AAA19AA0E94D8
:1005600060024B015C0182E00E946011892BF9F46A
:100570000E946002DC01CB0188199909AA09BB0914
:10058000481659066A067B0608F4A7C00E94600256
:100590006B017C0123E3C20ED11CE11CF11C0E9403
:1005A00060026C157D058E059F05C9F7DCCF48E01C
:1005B00050E0BE016D5D7F4F82E00E94BC11FFA044
:1005C0008BA18BA78CA18CA78DA18DA78EA18EA7A7
:1005D000E8A442E250E0BE016F5F7F4F82E00E94DC
:1005E000BC118981823009F076C08F2D90E0982F60
:1005F00088278E0D911D8334910509F06CC06D81A3
:100600007E818F8198850E94B926F1016083718374
:100610008283938346E050E0B801685F7F4FCE014C
:100620004D960E94E915892B09F059C0F10180818E
:100630009181A281B381F8014081518162817381EE
:1006400084179507A607B70708F449C04481558168
:1006500066817781481759076A077B0708F43FC00E
:1006600044E050E0BE016F5E7F4FC8010E960E94CD
:10067000D3158EECE82EF12C41E050E0BE01615D17
:100680007F4F82E00E94BC11F1E0EF1AF108A1F760
:10069000C80182969CAB8BABF801B696FEABEDAB76
:1006A0001801FAE22F0E311C08976C012E019BE213
:1006B000490E511C3801E2E16E0E711C5801F6E141
:1006C000AF0EB11C48012EE1820E911C82E00E9407
:1006D0006011892B31F48AA924C18FEF22C180E0F7
:1006E00020C141E050E0BE01605D7F4F82E00E948A
:1006F000BC1188A9833309F4E0C0D0F48130B9F18A
:1007000028F3833009F442C0863009F0F5C041E097
:1007100050E0BE016F5C7F4F82E00E94BC1144E05C
:1007200050E0B40182E00E94BC11E12CF12C51C0D8
:100730008A3309F48DC030F4853359F0863309F4D7
:100740005BC0DAC08B3309F49EC08F3F09F4BECF83
:10075000D3C041E050E0BE016F5C7F4F82E00E9459
:10076000BC1141E050E0BE016E5C7F4F0BC041E028
:1007700050E0BE016F5C7F4F82E00E94BC1144E0FC
:1007800050E0B30182E00E94BC11A0CF41E050E0F4
:10079000BE016F5C7F4F82E00E94BC1144E050E0DC
:1007A000B50182E00E94BC11E12CF12C89A990E0F6
:1007B0000497E816F9060CF089CF41E050E0BE013D
:1007C000615D7F4F82E00E94BC118FEFE81AF80A4A
:1007D000EDCF89A990E00497E816F9060CF076CFE2
:1007E00041E050E0BE01615D7F4F82E00E94BC119C
:1007F0009FEFE91AF90AEDCF41E050E0BE016F5CCE
:100800007F4F82E00E94BC11F801828D811109C0E6
:10081000838D811106C0848D811103C0858D88234D
:1008200019F04C145D0421F444E050E0B601AACF65
:1008300089A99FEF980F99AB882309F447CF41E02E
:1008400050E0BE01615D7F4F82E00E94BC11F0CF9D
:1008500041E050E0BE016F5C7F4F82E00E94BC111E
:1008600044E050E06DA97EA982E00E94BC11F8012D
:1008700066A177A180A591A50E94B92666A377A35A
:1008800080A791A723CF41E050E0BE016F5C7F4F6E
:1008900082E00E94BC1144E050E0B10182E00E947D
:1008A000BC11F80162A573A584A595A50E94B9267F
:1008B00062A773A784A795A709CF41E050E0BE01C6
:1008C0006F5C7F4F82E00E94BC1144E050E06BA956
:1008D0007CA982E00E94BC11F80162A173A184A1ED
:1008E00095A10E94B92662A373A384A395A366A7CA
:1008F00077A780AB91ABEACE41E050E0BE016F5CE0
:100900007F4F82E00E94BC1189A99FEF980F99AB9D
:10091000882309F4DBCE41E050E0BE01615D7F4FEA
:10092000F0CFE6960FB6F894DEBF0FBECDBFDF91D5
:10093000CF911F910F91FF90EF90DF90CF90BF90DC
:10094000AF909F908F907F906F905F904F903F906F
:100950002F9008950E96089542960895469608950C
:100960004A9608954E96089580E3FB01808332965F
:10097000842F82958F7090E1899F401911244A300D
:1009800014F4405D01C0495C4293482F8111F0CFBF
:100990000895AF92BF92DF92EF92FF920F931F9351
:1009A000CF93DF93CDB7DEB7AA970FB6F894DEBF2B
:1009B0000FBECDBF8C01D62EF42EE52E40E250E0C6
:1009C00060E0CE0101960E94DF1580913501909183
:1009D0003601A0913701B09138018DA39EA3AFA33A
:1009E000B8A743E450E0BE016B5D7F4F82E00E94F8
:1009F0000014892B09F4FBC081E089838A8386E097
:100A00008B831C82F80164817581868197810E94A5
:100A1000B92669A37AA38BA39CA344E050E0BE014E
:100A20006F5D7F4FCE0105960E94D315E986FA8649
:100A300080E890E09AA789A742E050E0BE01675D98
:100A40007F4FCE010B960E94D3152CE130E0AE0112
:100A50004F5F5F4F60E070E082E00E94B51240E2BD
:100A600050E060E0CE0101960E94DF155801F8E0E9
:100A7000AF0EB11C46E050E0B501CE0101960E94D8
:100A8000D31520E130E0AE014F5F5F4F6CE170E0C5
:100A900082E00E94B51240E250E060E0CE01019693
:100AA0000E94DF158CE2E82EF12C20E230E0AE014E
:100AB0004F5F5F4FB70182E00E94B51280E2E80EFF
:100AC000F11CECEEEE16F10481F783E6898392E8DF
:100AD0009A8393E59B838C8385E38D8381E08E836A
:100AE000DF829DE3988797E099878A8746E050E008
:100AF000B501CE010B960E94D3158CE0898B85EE53
:100B000092E00E940A168A5F8A8B65EE72E0CE013F
:100B100043960E940016F8014385BE01675E7F4F31
:100B2000C8010E94B404F8014485BE01655E7F4F90
:100B3000C8010E94B404F8014585BE01635E7F4F81
:100B4000C8010E94B4042EE130E0AE014F5F5F4F58
:100B50006CEE70E082E00E94B512F3E0DF1227C075
:100B600082E3898384E08A83F80196859B83978555
:100B70009C8390899D8391899E8396E39F83888738
:100B8000828D8987838D8A87848D8B87858D8C87DD
:100B90002CE030E0AE014F5F5F4F6AE071E082E031
:100BA0000E94B51266E171E080E090E004C06AE066
:100BB00071E080E090E027E3298326E02A8331E09A
:100BC0003B8333E03C832D832FE02E832AE32F8366
:100BD0002BE328872FEF298729E030E0AE014F5F14
:100BE0005F4F82E00E94B51282E00E942514AA960F
:100BF0000FB6F894DEBF0FBECDBFDF91CF911F912E
:100C00000F91FF90EF90DF90BF90AF9008952F92DB
:100C10003F924F925F926F927F928F929F92AF928C
:100C2000BF92CF92DF92EF92FF920F931F93CF93D9
:100C3000DF9300D000D0CDB7DEB78C0120ED37E0D8
:100C400040E050E061E070E080E090E00E9419191F
:100C5000A0E0B0E0F80184839583A683B783808306
:100C60009183A283B38382E00E94961064E470E0D3
:100C700082E00E948E10882309F42EC10E94600237
:100C80004B015C01212C312C7801F2E4EF0EF11CB8
:100C900048EE442E43E0542E612C712C52E0C52EB8
:100CA000D7018C91833009F4FEC081111FC0F80177
:100CB00084819581A681B7810196A11DB11D848390
:100CC0009583A683B7830E946002681979098A090F
:100CD0009B09A30192010E947226A90161E0C8014B
:100CE0000E94C90481E0D7018C93C5C08430F1F41F
:100CF000F80184819581A681B7810196A11DB11D5E
:100D000084839583A683B7830E946002681979095A
:100D10008A099B09A30192010E947226A90163E03E
:100D2000C8010E94C904D701CC92A5C0813051F5F9
:100D3000F80142AD53AD64AD75AD9E012F5F3F4FDD
:100D4000C8010E948F02D82EF2E08F138FC08981D4
:100D50009A81AB81BC81F80184839583A683B78394
:100D60000E946002681979098A099B09A30192010E
:100D70000E947226A90163E0C8010E94C904D7013C
:100D8000DC9279C0823009F076C0F80142AD53ADF3
:100D900064AD75AD9E012F5F3F4FC8010E948F0269
:100DA000D82EF5E08F135CC0E3E0D701EC93F80197
:100DB00082A193A1A4A1B5A1892B8A2B8B2B41F4ED
:100DC00084E893E0A0E0B0E082A393A3A4A3B5A33A
:100DD000F80186A197A1A0A5B1A5892B8A2B8B2B01
:100DE00061F482A193A1A4A1B5A1B695A795979509
:100DF000879586A397A3A0A7B1A7F80182A593A57D
:100E0000A4A5B5A5892B8A2B8B2BA9F482A193A12C
:100E1000A4A1B5A1AC01BD0123E0769567955795D6
:100E200047952A95D1F7841B950BA60BB70B82A784
:100E300093A7A4A7B5A7F80186A197A1A0A5B1A5DE
:100E400086A797A7A0ABB1AB82A593A5A4A5B5A58E
:100E500082AB93ABA4ABB5AB22242394312C0BC053
:100E6000F6E08F1303C0D7011C9205C0BFEFDB1261
:100E700002C0F7011082F1E02F16310409F410CFFF
:100E80000E946002DC01CB0188199909AA09BB09FB
:100E9000F80126A937A940AD51AD281739074A07EF
:100EA0005B0708F0FDCE82E00E949610F801848175
:100EB0009581A681B7810196A11DB11D848395837B
:100EC000A683B7830E946002F801FE966083718357
:100ED00082839383C10102C080E090E00F900F9065
:100EE0000F900F90DF91CF911F910F91FF90EF9096
:100EF000DF90CF90BF90AF909F908F907F906F903A
:100F00005F904F903F902F900895CF92DF92EF9295
:100F1000FF920F931F93CF93DF93EC016B011AA203
:100F20001BA21CA21DA21EA21FA218A619A61AA6C9
:100F30001BA61CA61DA62EAB3FAB48AF59AFEAAE11
:100F4000FBAE0CAF1DAF8C01085F1F4F46E050E0B9
:100F500060E0C8010E94DF15CE010E94880246E0D1
:100F600050E0B601C8010E94D315FE01EE5BFF4FB1
:100F70001082CE01DF91CF911F910F91FF90EF90E2
:100F8000DF90CF900C940706EF92FF920F931F9380
:100F9000780189019A01AB01BC0185E693E00E94CA
:100FA00085071F910F91FF90EF900895CF92DF92E8
:100FB000EF92FF920F931F93CF93DF93EC010E9468
:100FC00060026B017C018E01025C1F4FF801808181
:100FD0009181A281B381A7019601281B390B4A0B8D
:100FE0005B0BCA01B901683E33E0730781059105C7
:100FF00008F441C028EE33E040E050E00E94722641
:10100000C61AD70AE80AF90AF801C082D182E28238
:10101000F3828EA59FA5A8A9B9A969017A01CC0C74
:10102000DD1CEE1CFF1C8C159D05AE05BF0528F4CC
:101030001EA61FA618AA19AA08C0821B930BA40BF0
:10104000B50B8EA79FA7A8ABB9AB8AA99BA9ACA9E2
:10105000BDA98C159D05AE05BF0528F41AAA1BAACB
:101060001CAA1DAA08C0821B930BA40BB50B8AAB4C
:101070009BABACABBDAB8EA59FA5A8A9B9A9892B8D
:101080008A2B8B2B69F4FE01EE5BFF4F808183304E
:1010900039F484E08083CE010E940706019602C0E5
:1010A00080E090E04AA95BA96CA97DA9452B462B5D
:1010B000472B81F4FE01EE5BFF4F2081233011F0BE
:1010C000211108C01082CE010E948802CE010E9428
:1010D00007060396DF91CF911F910F91FF90EF903C
:1010E000DF90CF90089585E693E00C94D607FA9AA6
:1010F000F99A08951F920F920FB60F9211242F9311
:101100003F934F935F936F937F938F939F93AF938F
:10111000BF93EF93FF93E091970480915604E817F3
:1011200020F0FB98109253041AC0809154049091BF
:10113000550492BD81BD81E08E0F80939704F0E04D
:10114000E95AFB4F808180BD8091540490915504F1
:10115000019690935504809354040E947708FF9160
:10116000EF91BF91AF919F918F917F916F915F911F
:101170004F913F912F910F900FBE0F901F90189598
:10118000209153042111FCCF909355048093540473
:1011900081E0809353041092970440935604962F55
:1011A000A7E5B4E0FB018E2F891B841718F4819109
:1011B0008D93F9CF7894FB9A0895FB01861B970BCA
:1011C00050E0DC01AE0FBF1F9F01261B370B241719
:1011D000350748F4F999FECFB2BDA1BD219120BDDC
:1011E000FA9AF99AEECF0895209153042111FCCF79
:1011F000FB01861B970B2E2F261B241748F49C01FE
:101200002E0F3F1F32BD21BDF89A20B52193F3CF99
:1012100008958091530490E0089560E070E080E0CC
:1012200090E00E943602219A29980895299A0895FB
:10123000299808959093A9038093A8031092AC0372
:101240001092AB031092AA0360E070E080E090E09F
:101250000E9436020C9418098091A8039091A9036A
:10126000892B09F452C080E090E00E941D02892B76
:1012700009F44BC08091AA03811134C02091AB03C3
:101280003091AC03E091A803F091A903E20FF31FA2
:1012900080818032E9F03CF481111DC01092AC03D2
:1012A0001092AB0308958D3239F08E32A1F40E9472
:1012B00016096AEF70E004C00E9416096EEE72E033
:1012C00080E090E00E94360281E08093AA030895B6
:1012D00068EE73E00BC02F5F3F4F3093AC03209359
:1012E000AB0308950E94180964E670E080E090E086
:1012F0000E9436021092AA038091AB039091AC0336
:1013000001969093AC038093AB03089585B18695C5
:10131000817090E008958031910504F527E0289FC1
:10132000A001299F500D1124FA01E055FC4F808146
:101330008132A0F480E090E020E0FA01E80FF91F8C
:10134000E055FC4F3081230F019687309105A9F7B6
:1013500081E090E0222321F080E0089580E090E099
:1013600008956F927F928F929F92AF92BF92CF9289
:10137000DF92EF92FF920F931F93CF93DF930E9420
:101380000909892BE1F700E214E0C0E8D0E0BE01D2
:10139000605D7C4F47E0CE010E94F408F801119295
:1013A0008F012796C03FD10591F740EBE42E43E033
:1013B000F42E8701C0E0D0E0D12CB12C77247A94B0
:1013C000CE010E948B09892B41F0F801808187159D
:1013D00020F4BC2E782EDD24D3942196095F1F4F74
:1013E000C031D10569F7DD2009F46AC0B092AF03BE
:1013F0007092AE03CB2DD0E08E010F5F1F4F872C74
:101400002FE0A22E37E0932E6801FFE0CF22DD24EB
:10141000C6010E948B09892B61F4B092AD038E0145
:1014200001501109609780E1A82EB12C97E0692E38
:101430003AC09C9CF0019D9CF00D1124E055FC4F9E
:101440004081242F30E0882D90E001968F719927FC
:101450002817390711F7C092AF034093AE03AA943F
:101460000F5F1F4FAA20C9F2842ECECFF701208133
:1014700030E0872D90E04F968F7199272817390714
:1014800031F5C092AD03689CF001699CF00D112408
:10149000E055FC4F708001501109F7E0EF0EF11C90
:1014A0000C171D07A1F0C801B5010E945E266C0152
:1014B0004C019924C4010E948B09892BB9F607C0FD
:1014C0008FE08093AF031092AE031092AD03DF91D3
:1014D000CF911F910F91FF90EF90DF90CF90BF9031
:1014E000AF909F908F907F906F900895EF92FF92B2
:1014F0001F93CF93DF930E940909892B39F5E0E20E
:10150000F4E0C0E0D0E081918823E1F017E01C9F77
:10151000C0011D9F900D11249C0120553C4F790165
:1015200067E070E0C9010E94EA18C19FC001112460
:1015300047E0B70180589F4F0E94C008C05EDB4F54
:10154000188204C02196C031D105E9F6DF91CF9110
:101550001F91FF90EF900895EF92FF921F93CF930A
:10156000DF93E0E2F4E0C0E0D0E081918823E1F095
:1015700017E01C9FC0011D9F900D11249C01205558
:101580003C4F790167E070E0C9010E94EA18C19FF1
:10159000C001112447E0B70180589F4F0E94DD0829
:1015A000C05EDB4F188204C02196C031D105E9F638
:1015B000DF91CF911F91FF90EF900895EF92FF92EE
:1015C0000F931F93CF93DF93E82EC091AF03D0E02A
:1015D0002196CF70DD278091AD0390E00E948B09AA
:1015E000F82E8091AE038F5F813218F48093AE03A2
:1015F00002C01092AE0387E08C9F80018D9F100D7A
:10160000112400551C4F8091AE03F80180830E9485
:101610008A0CF8016183728383839483E582C0938B
:10162000AF0367E070E0C8010E94EA18C05EDB4FBC
:1016300081E088838091AF039091AD03891308C046
:10164000FF2031F090E001968F7099278093AD03D1
:10165000DF91CF911F910F91FF90EF900895E0EBF4
:10166000F3E0A0E2B4E08FEF4FEF5FEFBA0191E05B
:101670008083858341835283638374839D933796EC
:1016800024E0E032F207A1F78FE08093AF031092DD
:10169000AD031092AE0308950F931F93CF93DF9382
:1016A0000091AD03C02F10E0D0E0CE010E948B0965
:1016B000892B29F02196CF701F5F0C13F5CF812F56
:1016C000DF91CF911F910F910895AF92BF92CF926A
:1016D000DF92EF92FF920F931F93CF93DF936B01F3
:1016E0007C018A0159010E944C0B90E0A0E0B0E01F
:1016F000C816D906EA06FB06F8F48091AD0390E01F
:10170000C80ED91E8FE0C822DD2487E08C9DF00131
:101710008D9DF00D1124E055FC4F81819281A381B4
:10172000B481E80188839983AA83BB838581F5010D
:10173000808381E090E002C080E090E0DF91CF9173
:101740001F910F91FF90EF90DF90CF90BF90AF90DF
:1017500008954F925F926F927F928F929F92AF9275
:10176000BF92CF92DF92EF92FF920F931F93CF938E
:10177000DF93CDB7DEB7CA57D1090FB6F894DEBFF5
:101780000FBECDBFF82E8091390190913A01A09102
:101790003B01B0913C01E9968CAF9DAFAEAFBFAFBE
:1017A000E99783E00E945910882329F06BE770E0E5
:1017B00083E00E948E1050E3E52E6E0101E4C00E1E
:1017C000D11C63E2462E512C612C712CFF2009F4B0
:1017D00082C0F6010E2D11920A95E9F7F6014082BA
:1017E0005182628273820BE710E09E012B583F4FBB
:1017F00040E350E0B60183E00E946A11C09709F00F
:101800006AC00E9460024B015C01F9EE8F0EF3E0AA
:101810009F1EA11CB11C0E946002681579058A05F3
:101820009B05C9F783E00E946011009709F451C03D
:101830008E0107581F4F9E012F583F4FAC01BE012C
:101840006F5F7F4F83E00E94DD11C09709F041C0B8
:1018500069A5862F90E0A0E0B0E0BA2FA92F982FBD
:1018600088272AA5820F911DA11DB11DBA2FA92F6E
:10187000982F88272BA5820F911DA11DB11DBA2F6E
:10188000A92F982F88274CA550E060E070E04058C1
:10189000534169417C4B8A019B01080F191F2A1F84
:1018A0003B1FC901B8010E945D0E0E94B00C8CEE76
:1018B00092E00E94B7170E94600F0E94B71789EF4D
:1018C00092E00E94B71783E00E94961081E090E0BA
:1018D00007C0FA947BCF83E00E94961080E090E0EE
:1018E000C658DF4F0FB6F894DEBF0FBECDBFDF91F5
:1018F000CF911F910F91FF90EF90DF90CF90BF900D
:10190000AF909F908F907F906F905F904F900895D1
:101910000C9489170C949917609398047093990408
:1019200080939A0490939B040C94A5179C0160E902
:1019300071E00E944A26892B79F0C90183709927AA
:10194000892B61F4C90164E670E00E944A269C017B
:1019500081E0232B21F402C081E0089580E0089506
:101960002F923F924F925F926F927F928F929F92AF
:10197000AF92BF92CF92DF92EF92FF920F931F939D
:10198000CF93DF93CDB7DEB767970FB6F894DEBF7E
:101990000FBECDBF2CE0EDE3F1E0AE014F5F5F4F36
:1019A0001A01DA0101900D922A95E1F7DC012C91E0
:1019B000220F2056322F330F330F230F11963C91F5
:1019C00011973153230F2D8713962C911397022EC5
:1019D000000C330B205331096AE0629FA001639F22
:1019E000500D11241496CC900C2C000CDD08B0E3A3
:1019F000CB1AD108C40ED51E860101501109FC0175
:101A00002681022E000C330B20533109E8EEF3E05F
:101A10002E9FA0012F9F500D3E9F500D1124DC01E1
:101A200017962C911797022E000C330B2053310977
:101A300074E6729F7001739FF00C1124E40EF51E82
:101A400018964C911897042E000C550B40535109D1
:101A5000649F9001659F300D1124E20EF31E1996CC
:101A60002C911997F701E20FF11D27FDFA95AF01AF
:101A700058507A011B962C911B97220F2056322F1B
:101A8000330F330F230F1C963C911C973053230FB9
:101A9000298B1E962C911E97220F2056322F330F22
:101AA000330F230F1F963C911F973053230F2A8B20
:101AB00051962C915197220F2056322F330F330F0E
:101AC000230F52968C918053280F2B8BCA010E94B2
:101AD000960C882321F05D85523008F08601C701FD
:101AE00060E971E00E944A26FC01DB0120E839E54B
:101AF00040E650EF0E94CF262B013C01CF0164E667
:101B000070E00E944A26FC01DB0120E032EC47E154
:101B10005CEB0E94CF264B015C01DF01B695A795D7
:101B2000B695A79520E83FE146E857E00E94CF260A
:101B30006B017C01DF01A370BB2720E833E341EE9A
:101B400051E00E94CF266C8B7D8B8E8B9F8BF10199
:101B50008E2F82199D85891720F48191080F111D00
:101B6000F7CFA9892A2F30E0A0E1BEE00E94C0266D
:101B70006D877E878F87988BBA892B2F30E0ACE3F7
:101B8000B0E00E94C0262D853E854F855889260FDE
:101B9000371F481F591FDA01C9013B89830F911D67
:101BA000A11DB11D480E591E6A1E7B1E840C951C7A
:101BB000A61CB71CC80CD91CEA1CFB1C8C899D896F
:101BC000AE89BF89C80ED91EEA1EFB1ED80120E8C7
:101BD00031E541E050E00E94CF26DC01CB018C0DC5
:101BE0009D1DAE1DBF1D8093980490939904A093F2
:101BF0009A04B0939B0467960FB6F894DEBF0FBEAD
:101C0000CDBFDF91CF911F910F91FF90EF90DF90AB
:101C1000CF90BF90AF909F908F907F906F905F908C
:101C20004F903F902F900C94A517EF92FF920F9337
:101C30001F93CF93DF93CDB7DEB768970FB6F894B5
:101C4000DEBF0FBECDBF7B012CE0EDE3F1E0DE0196
:101C50001D9601900D922A95E1F78E010F5F1F4F9F
:101C60002CE0F80111922A95E9F70E94960C8A83DC
:101C7000DE011D9680E0F701408151819D91F801C0
:101C800021918F0130E0290F311D4217530740F099
:101C9000421B530BF701518340838F5F8C3059F700
:101CA00068960FB6F894DEBF0FBECDBFDF91CF911F
:101CB0001F910F91FF90EF9008954F925F926F9256
:101CC0007F928F929F92AF92BF92CF92DF92EF92CC
:101CD000FF92CF93DF9300D0CDB7DEB72B013C014D
:101CE00081E090E0A0E0B0E020E8421629E552064D
:101CF00020E6620620EF720618F480E090E0DC0136
:101D000020E931E0829F5001839FB00C929FB00C7C
:101D1000112480E3A81A88EFB80AC12CD12C7601CF
:101D2000C39420E8421629E5520620E6620620EF19
:101D3000720618F4C12CD12C7601A701960160E837
:101D400079E580E690EF0E943A2673016201C61A97
:101D5000D70AE80AF90A81E090E0A0E0B0E0C114F7
:101D600022ECD20627E1E2062CEBF20618F480E022
:101D700090E0DC0144E6489F9001499F300D11241A
:101D8000A20EB31E21E030E040E050E0C11482EC2E
:101D9000D80687E1E8068CEBF80618F420E030E07E
:101DA000A90160E072EC87E19CEB0E943A26A70152
:101DB0009601261B370B480B590BCA01B90120E8C5
:101DC0003FE146E857E00E947226220F331F220FA0
:101DD000331FA20EB31E20E833E341EE51E00E9410
:101DE00072267501E20EF31E20E831E541E050E075
:101DF0000E9472264B015C013A832983BE016F5F0A
:101E00007F4FC7010E94150ED82EC501B40120E1F5
:101E10003EE040E050E00E94722629013A014B0169
:101E20005C016FEF72E085E191E00E9400166D2D7C
:101E300070E06F5F7F4F42E085E191E00E941316F2
:101E400069817A816F5F7F4F42E088E191E00E9473
:101E5000131644E0B7018BE191E00E94131642E0B3
:101E6000B20180E291E00E941316C501B4012CE397
:101E700030E040E050E00E94722649015A016B01B7
:101E80007C0142E0B40183E291E00E94131642E03B
:101E9000B60186E291E00E94131685E191E00F9071
:101EA0000F90DF91CF91FF90EF90DF90CF90BF9098
:101EB000AF909F908F907F906F905F904F9008951C
:101EC0000F931F930E949917009198041091990401
:101ED00020919A0430919B04600F711F821F931F01
:101EE0001F910F910C945D0EEF92FF920F931F9331
:101EF000CF93DF938C01EB017A01009721F02097BB
:101F000011F0452B29F483E193E00E94B717FFCF2E
:101F100068E273E00E94CF18892B29F483E193E0F3
:101F20000E94B71744C062E373E0CE010E94CF184D
:101F3000892BA1F36BE373E0C7010E94CF18892BB3
:101F400069F34CE050E0B80180EA94E00E94D315B8
:101F50001092AB044CE050E0BE018CEA94E00E9489
:101F6000D3151092B7044CE050E0B70188EB94E031
:101F70000E94D3151092C304F80180818E7F809354
:101F8000C80481818093C90482818093CA048881B6
:101F90008093CB0489818093CC048A818093CD0483
:101FA000DF91CF911F910F91FF90EF900895FFCF98
:101FB0000E94CC21882361F00E94D3218435C1F78F
:101FC00083E493E00E94B7178FEF90E00C946D00CC
:101FD0000895EF92FF921F93CF93DF9300D000D02C
:101FE00000D0CDB7DEB7182F7A0186E0E9E4F1E042
:101FF000DE01119601900D928A95E1F7FB01818136
:102000008F778C8382818D8383818E83812F0E9441
:102010001F1EBE016F5F7F4F812F0E94111EB701EF
:10202000812F0E942D1EB701812F0E94E81D62E8BA
:10203000812F0E94B91D61E0812F0E94CB1D81E09C
:1020400026960FB6F894DEBF0FBECDBFDF91CF91BD
:102050001F91FF90EF9008950E94E41D91E082325D
:1020600009F090E0892F08950E94E41D882341F033
:102070008C3131F091E08A3109F490E0892F089594
:1020800080E008950E94E41D91E0843109F090E021
:10209000892F08950E94E41D91E0873109F090E0B6
:1020A000892F08950E94E41D91E0811190E0892F0D
:1020B00008950C945210CF93C82F60E10E94CB1D5D
:1020C0006FEF8C2FCF910C94D61D0F931F93CF934E
:1020D000DF93C82FD62F8A010E945B106D2F8C2FA3
:1020E0000E94B91D0115110511F0B8010AC06091D7
:1020F0003004709131046F5F7F4F709331046093AF
:1021000030048C2F0E94E81D61E08C2F0E94CB1DB3
:1021100081E0DF91CF911F910F910895AB0162E0B3
:102120000C946510AB0161E00C9465100C945B108D
:10213000CF93C82F0E94E41D833131F462E08C2FCD
:102140000E94CB1D81E001C080E0CF9108950F93E4
:102150001F93CF93FB0190819F3F51F491819F3F4B
:1021600091F492819F3F79F493819F3F61F41DC068
:10217000911109C09181911106C09281911103C002
:102180009381992399F04115510579F08A01BF0196
:10219000C82F0E941F1EB8018C2F0E942D1E64E0C4
:1021A0008C2F0E94CB1D91E001C090E0892FCF9130
:1021B0001F910F91089568E00C94CB1DCF92DF9290
:1021C000EF92FF920F931F93CF93C82F7B018A0149
:1021D0004130584010F000E018E08C2F0E94A81EFB
:1021E0006C018C2F0E94E41D873111F08C3121F499
:1021F000C016D10690F302C000E010E0A801B701BC
:102200008C2F0E94491F60E28C2F0E94CB1D8C2FC7
:102210000E94DB1D84FD0BC08C2F0E94E41D8111E8
:10222000F6CF8C2F0E945B1080E090E005C060E14B
:102230008C2F0E94D61DC801CF911F910F91FF9046
:10224000EF90DF90CF900895CF92DF92EF92FF92C0
:102250001F93CF93DF93182F6B017A010E94901F79
:10226000EC01009789F4812F0E94E41D8431E9F08C
:102270008823D9F0C1E0D0E08C3111F4C0E0D0E087
:10228000D195C195D10911C0E816F9060CF4E70102
:102290001C161D0654F420E0AE01B601812F0E94E9
:1022A0000A2060E4812F0E94CB1DCE01DF91CF91E7
:1022B0001F91FF90EF90DF90CF9008950C94901FA6
:1022C0000C94901F21E041E050E00E940A2081E040
:1022D00090E00895CF92DF92EF92FF920F931F93B9
:1022E000CF93F9019081911109C09181911106C09C
:1022F0009281911103C093819923A1F101151105D8
:1023000089F17A014130584018F0E12C98E0F92E1B
:10231000E114F10439F16B01C82FBF010E941F1EA7
:10232000B8018C2F0E942D1EA701B6018C2F0E9490
:10233000491F60E28C2F0E94CB1D8C2F0E94DB1D59
:1023400084FD0AC08C2F0E94DB1D83FFF6CF68E15D
:102350008C2F0E94D61D06C060E18C2F0E94D61DD6
:10236000C70102C080E090E0CF911F910F91FF90D4
:10237000EF90DF90CF900895EF92FF921F93CF934D
:10238000DF934115510589F0EA017B01182F0E9466
:10239000901F8C179D0708F4EC0120E0AE01B701F7
:1023A000812F0E940A20CE0102C080E090E0DF91E0
:1023B000CF911F91FF90EF9008958F929F92BF92BF
:1023C000CF92DF92EF92FF920F931F93CF93DF9301
:1023D000CDB7DEB728970FB6F894DEBF0FBECDBFDE
:1023E000452B09F47EC049016B01B82E0E94BD1F28
:1023F0007C018B2D0E94BE1D8770833059F1843083
:1024000009F445C0823009F065C028E030E0AE0133
:102410004F5F5F4FB7018B2D0E945D1C88E0E80E77
:10242000F11C8981F40180838A8181838B8182837D
:102430008C8183838D8190E0982F88272E81820F55
:10244000911DF801918380830F8110E0102F0027E8
:1024500088851AC026E030E0AE014F5F5F4FB701BC
:102460008B2D0E945D1CF6E0EF0EF11C8981F401BA
:1024700080838A8181838B8182838C8183830D8198
:1024800010E0102F00278E81080F111D16C022E0CA
:1024900030E0AE014F5F5F4FB7018B2D0E945D1C96
:1024A000F2E0EF0EF11C098110E0902F88270A81DD
:1024B00010E002501109080F191F9801A601B70179
:1024C0008B2D0E945D1CB701600F711F8B2D0E9428
:1024D000AC1F02C000E010E060E48B2D0E94CB1D19
:1024E00002C000E010E0C80128960FB6F894DEBFE5
:1024F0000FBECDBFDF91CF911F910F91FF90EF9055
:10250000DF90CF90BF909F908F9008951F93CF93AF
:10251000DF93182FEA014130584018F42097F9F062
:1025200002C0C0E0D8E0AE01812F0E94491F60E2E6
:10253000812F0E94CB1D812F0E94DB1D84FD09C0CD
:10254000812F0E94DB1D83FFF6CF812F0E945B103D
:1025500006C060E1812F0E94D61DCE0102C080E03E
:1025600090E0DF91CF911F910895CF92DF92EF928B
:10257000FF921F93CF93DF93182F7B016A01E9012C
:102580000E94A81E8C179D0720F4812F0E94A81E70
:10259000EC019E01A601B701812F0E94FE1ECE0113
:1025A000DF91CF911F91FF90EF90DF90CF90089532
:1025B0001F93CF93DF93182FEB01CB010E940A16D4
:1025C000AC01BE01812FDF91CF911F910C94DE10E1
:1025D000CF93DF931F92CDB7DEB7698341E050E020
:1025E000BE016F5F7F4F0E94DE100F90DF91CF9191
:1025F00008950F931F93CF93C82F8B0162E20E941F
:10260000E812B8018C2F0E94D81262E28C2FCF9171
:102610001F910F910C94E812CF93C82FCB01BA01F0
:102620000E945D0EFC011286BC018C2FCF910C9490
:10263000F912CF93DF93D82FC62F70E084E0759501
:1026400067958A95E1F76A3010F4605D01C0695CB6
:102650008D2F0E94E8126C2F6F706A3010F0695C49
:1026600001C0605D8D2FDF91CF910C94E812EF9245
:10267000FF920F931F93CF93C82F7B0162E20E94BA
:10268000E812F70161918F018C2F0E941913F6E077
:10269000EF0EF11C6AE38C2F0E94E812F8016191A1
:1026A0008F018C2F0E9419130E151F0599F762E2F6
:1026B0008C2FCF911F910F91FF90EF900C94E81207
:1026C000CF93DF93C82FD62F672F0E9419136D2F3A
:1026D0008C2FDF91CF910C9419132F923F924F9230
:1026E0005F926F927F928F929F92AF92BF92CF92A2
:1026F000DF92EF92FF920F931F93CF93DF93CDB7AB
:10270000DEB762970FB6F894DEBF0FBECDBF782E4E
:102710007B0177FF08C0F194E194F10881E090E03B
:10272000998B888B02C0198A188AFE0131961F0185
:102730008E01055F1F4F6F0188248394912CA12C7B
:10274000B12CAAE0B0E09401A5010E94CF266A8BCB
:10275000472E582E692EB7010F2C000C880B990BB1
:102760002A89342D452D562D0E9494269401A501C9
:102770000E949426F60121936F01E21AF10827FDC9
:10278000F3948A88942CA52CB62C0E171F07C9F633
:1027900088899989892B21F06DE2872D0E94E812A2
:1027A00080E090E0F80162918F01611105C000970F
:1027B00019F42E163F0641F4605DF8016083872D01
:1027C0000E94E81281E090E02016310659F76296E7
:1027D0000FB6F894DEBF0FBECDBFDF91CF911F9132
:1027E0000F91FF90EF90DF90CF90BF90AF909F90B0
:1027F0008F907F906F905F904F903F902F900895B3
:102800000F931F93CF93FB019081911109C0918188
:10281000911106C09281911103C09381992379F09F
:102820004115510561F08A01BF01C82F0E941F1E8A
:10283000B8018C2F0E942D1E81E090E002C080E044
:1028400090E0CF911F910F910895CF93C82F60E230
:102850000E94CB1D8C2F0E94DB1D84FD0CC08C2F91
:102860000E94DB1D83FFF6CF68E18C2F0E94D61DEE
:1028700080E090E006C060E18C2F0E94D61D81E0D0
:1028800090E0CF910895EF92FF920F931F93CF9313
:10289000DF931F92CDB7DEB7182FE12CF12C812FDB
:1028A0000E94901FE816F90688F401E0970141E0C4
:1028B00050E0BE016F5F7F4F812F0E94D51F89813D
:1028C0008A3031F08FEFE81AF80AE9CF80E001C0D2
:1028D00081E00F90DF91CF911F910F91FF90EF90CA
:1028E00008951F93CF93DF931F92CDB7DEB7182FB4
:1028F0000E94901F892B89F021E041E050E0BE0149
:102900006F5F7F4F812F0E940A20998181E09D3067
:1029100029F09A3019F080E001C081E00F90DF913A
:10292000CF911F9108958F929F92AF92BF92CF92B5
:10293000DF92EF92FF920F931F93CF93DF931F923B
:10294000CDB7DEB7182F5B010E94901F7C01C50137
:102950000E940A16E816F90668F175016701CA189F
:10296000DB084701F7018081882399F001E0960197
:1029700041E050E0BE016F5F7F4F812F0E94D51F65
:102980008FEFE81AF80AF40190818981981731F3E2
:1029900011C0C114D10461F041E050E0BE016F5F8D
:1029A0007F4F812F0E942411F1E0CF1AD108F1CF7F
:1029B00081E001C080E00F90DF91CF911F910F91D6
:1029C000FF90EF90DF90CF90BF90AF909F908F904F
:1029D00008951F93CF93DF931F92CDB7DEB7182FC3
:1029E000812F0E94901F892BC1F141E050E0BE0170
:1029F0006F5F7F4F812F0E94241189818D30D1F428
:102A0000812F0E94901F892B59F321E041E050E073
:102A1000BE016F5F7F4F812F0E940A2089818A301B
:102A2000E1F441E050E0BE016F5F7F4F812F0E94D3
:102A3000241113C08A30A1F6812F0E94901F892B88
:102A400079F221E041E050E0BE016F5F7F4F812FBE
:102A50000E940A2089818D3021F30F90DF91CF9160
:102A60001F910895BF92CF92DF92EF92FF920F9342
:102A70001F93CF93DF931F92CDB7DEB7C82E8B0184
:102A8000FB01118210820E94901F892B09F451C012
:102A9000D12CEE24E394F12C2AE0B22E8C2D0E944E
:102AA000901F892BB9F121E041E050E0BE016F5F3A
:102AB0007F4F8C2D0E940A2089818D3231F4D110F4
:102AC00038C0EE24EA94FE2C1CC090ED980F9A308A
:102AD00090F4F80140815181B49E9001B59E300D73
:102AE0001124082E000C990BC097820F931F91831D
:102AF0008083D39406C08A3069F08D3059F08032DB
:102B000049F041E050E0BE016F5F7F4F8C2D0E9485
:102B10002411C4CFF801208131812E9DC0012F9D49
:102B2000900D3E9D900D11249183808381E0D11002
:102B300001C080E00F90DF91CF911F910F91FF9026
:102B4000EF90DF90CF90BF9008959FB7F894229BAD
:102B50002A9A229A259A239A2D988CB580618CBD49
:102B60008CB580648CBD109232049FBF0895809113
:102B70003204089590913204911109C09FB7F894DE
:102B80008CBD6DBD81E0809332049FBF2A9808956B
:102B90008EBD00000DB407FEFDCF8EB508952A9AB4
:102BA000109232040895FB01480F591F84179507AE
:102BB00029F02191DC012D93CD01F8CF0895480F24
:102BC000591F8417950721F0FC016193CF01F9CFBC
:102BD0000895FB01480F591F8417950759F0DC0130
:102BE0003D91CD012191321740F02317A8F781E0E4
:102BF00090E0089580E090E008958FEF9FEF0895B2
:102C0000FC01DB018D91BD01882311F08193F9CF87
:102C100010820895FC019F01281B390B419141113D
:102C2000FACFC90108959F92AF92BF92CF92DF92DF
:102C3000EF92FF920F931F93CF93DF9300D000D0BA
:102C40001F92CDB7DEB7FC016B019E012F5F3F4F96
:102C50008E010A5F1F4FEE24E394F12C9AE0992E27
:102C60009E9C50019F9CB00C1124C601B5010E948E
:102C70004A26B7010E944A26D9016D939D01C61AC2
:102C8000D10867FDD3947501A017B10749F760E03B
:102C900070E084E090E050E0D8012E918D01211188
:102CA00005C06115710511F4009741F4841795076B
:102CB0002CF4205D219361E070E004C08417950737
:102CC0000CF43196019740F70F900F900F900F90F2
:102CD0000F90DF91CF911F910F91FF90EF90DF90B8
:102CE000CF90BF90AF909F90089588EC80937C0028
:102CF00086E880937A00089580917A00829586957F
:102D00008695837091E08927817090E00895EAE7C5
:102D1000F0E0808180648083089580917800209124
:102D2000790030E0322F2227A901330F660B770B91
:102D30009A01AB01282BA5E6B0E00E94CF2624E63D
:102D400030E040E050E00E949426DA01C901815150
:102D50009140A109B109089508950F931F93E0913F
:102D60003304F0913404E930F10508F09BC0E25CD3
:102D7000FF4F0C94B3268417950764F08DE493E01D
:102D80000E941A0986E00E94DE0A86E090E00E9416
:102D90006D0025C0081719070CF48EC08DE493E070
:102DA0000E941A0988E00E94DE0A88E090E00E94F2
:102DB0006D000BC0841795070CF7081719070CF462
:102DC0007BC08DE493E00E941A0986E090E065C024
:102DD00084179507FCF28DE493E00E941A0983E0C2
:102DE00090E05BC08617970764F08FE493E00E9441
:102DF0001A0985E00E94DE0A85E090E00E946D00DD
:102E000012C0841795070CF057C083EE92E00E9421
:102E10001A0982E090E041C08617970794F38FE487
:102E200093E00E941A0985E090E037C08617970763
:102E30000CF042C08DE493E00E941A0984E090E017
:102E40002CC02817390764F08FE493E00E941A0918
:102E500087E00E94DE0A87E090E00E946D0011C0CA
:102E6000081719074CF583EE92E00E941A0981E0D9
:102E700090E013C0281739079CF38FE493E00E9479
:102E80001A0988E090E009C028173907ACF48DE4EE
:102E900093E00E941A0987E090E0909334048093B5
:102EA00033040AC0109234041092330483EE92E08B
:102EB0001F910F910C941A091F910F910895109270
:102EC00034041092330408951F920F920FB60F929C
:102ED00011248F939F93AF93BF938091350490916A
:102EE0003604A0913704B09138040196A11DB11D9C
:102EF0008093350490933604A0933704B09338043C
:102F0000BF91AF919F918F910F900FBE0F901F9027
:102F1000189583E294EF9093890080938800109233
:102F200080008CE080938100789482E080936F0031
:102F300008952FB7F894609135047091360480910C
:102F40003704909138042FBF08958FB7F8941092EA
:102F500035041092360410923704109238048FBF53
:102F600008950E945E20789408950C942222CF93B5
:102F7000DF93EC018991882319F00E942222FACF75
:102F8000DF91CF910895CF93C82F90E024E09595DD
:102F900087952A95E1F78A3010F4805D01C0895C3D
:102FA0000E9422228C2F8F708A3010F0895C01C021
:102FB000805DCF910C942222CF93C82F892F0E943D
:102FC000C3178C2FCF910C94C3172F923F924F921F
:102FD0005F926F927F928F929F92AF92BF92CF92A9
:102FE000DF92EF92FF920F931F93CF93DF93CDB7B2
:102FF000DEB763970FB6F894DEBF0FBECDBF6B018F
:103000007C0197FF0DC0F094E094D094C094C11C53
:10301000D11CE11CF11C81E090E09B8B8A8B02C0EB
:103020001B8A1A8AFE0131965F018E01055F1F4FD0
:10303000F98BE88B66246394712C812C912CAAE087
:10304000B0E09301A4010E94CF261B012C01C7010F
:10305000B6019101A2010E9494269301A4010E944D
:103060009426E889F9892193F98BE88B822F220F26
:10307000990BAA0BBB0BC81AD90AEA0AFB0A310141
:1030800042010E171F07D9F68A899B89892B19F0EF
:103090008DE20E94222220E030E0F80182918F012F
:1030A000811106C02115310519F4EA15FB0529F433
:1030B000805D0E94222221E030E00A151B0569F79D
:1030C00063960FB6F894DEBF0FBECDBFDF91CF91F0
:1030D0001F910F91FF90EF90DF90CF90BF90AF9036
:1030E0009F908F907F906F905F904F903F902F9028
:1030F00008950C94F8210C941F22FF920F931F93B4
:10310000CF93DF93EC01062FF72E18820E94F8214F
:1031100010E08823D9F00E94CC218823B9F00E94C6
:10312000D321803210F089931F5FE02FFF2D482FAD
:1031300050E02191222339F0022E000C330B42176C
:103140005307B9F702C08D3051F71882812FDF91F4
:10315000CF911F910F91FF9008950F931F93CF93DD
:10316000DF938C01EC01699170E080E090E00E94B7
:10317000E5170C5F1F4F8EE20E942222699170E0DA
:1031800080E090E00E94E517C017D107A1F78CEF0F
:1031900092E0DF91CF911F910F910C94B717DC0152
:1031A000FB019D91992341F08191891784F0981733
:1031B000C4F78FEF9FEF089581E090E02081211107
:1031C00002C080E090E0919581959109089581E099
:1031D00090E00895DC0190E020E061507109422FF9
:1031E00050E0FD01E40FF51F4617570720F48081DA
:1031F000980F2F5FF4CF9195908308956115710515
:103200008105910541F060932D0170932E0180930B
:103210002F0190933001211531054105510541F0F1
:103220002093290130932A0140932B0150932C01C4
:1032300008954F925F926F927F928F929F92AF927A
:10324000BF92CF92DF92EF92FF92CF93DF9300D0A5
:1032500000D0CDB7DEB72B013C0129833A834B83E5
:103260005C83C0902901D0902A01E0902B01F0905E
:103270002C01A701960144275527A9E6B0E90E9431
:10328000CF266701EE24FF244B015C018C0C9D1CB2
:10329000AE1CBF1C8092290190922A01A0922B01A2
:1032A000B0922C01C0902D01D0902E01E0902F0102
:1032B000F0903001A701960144275527A0E5B6E418
:1032C0000E94CF266701EE24FF24C60ED71EE81EFB
:1032D000F91EC0922D01D0922E01E0922F01F092A2
:1032E0003001D40199278827BC01CD016C0D7D1DCB
:1032F0008E1D9F1D29813A814B815C8124193509DE
:10330000460957090E947226CB01840D951D0F9026
:103310000F900F900F90DF91CF91FF90EF90DF9083
:10332000CF90BF90AF909F908F907F906F905F9065
:103330004F900895CF93DB01FC0120812D3221F4C1
:1033400001966FEF7FEF02C061E070E011961C9272
:103350001E92FC01CAE020818D919C91119722233D
:10336000C1F0C89FA001C99F500D112411965C9314
:103370004E93219180ED820F8A30B8F4022E000C1A
:10338000330B20533109240F351F11963C932E9394
:10339000E2CF869F9001879F300D969F300D1124BC
:1033A0002D933C9381E090E002C080E090E0CF91CB
:1033B000089580919C04833561F480919D04853447
:1033C00041F481E090E020919E04223521F080E0DC
:1033D00002C080E090E0ECE9F4E020E03191230FBE
:1033E00034E0E43DF307D1F7222311F080E090E0D0
:1033F0000895CF93DF93CDB7DEB7E7970FB6F89474
:10340000DEBF0FBECDBF87E3EFE4F1E0DE01119632
:1034100001900D928A95E1F767E370E0CE01019685
:103420000E94EA1847E3BE016F5F7F4F80E090E0A3
:103430000E94C008E7960FB6F894DEBF0FBECDBF5E
:10344000DF91CF9108950E940909892BE1F747E3A5
:103450006CE974E080E090E00E94F4080E94D919C1
:10346000892B49F40E94F91947E36CE974E080E084
:1034700090E00C94F4080895AF92BF92DF92EF921F
:10348000FF920F931F93CF93DF93EC01D62EE72E7D
:103490008A01809139048333F9F4A62EB72E7E0178
:1034A000E40EF51ECE15DF0509F45EC062E080E58E
:1034B0000E94BA1580EF0E94C8158D2F0E94C81572
:1034C0008C2F0E94C8152196F50181915F010E9401
:1034D000C8150E94CF15E6CF62E080E50E94BA15BC
:1034E000C115F4E0DF0718F4FC2EC4E00DC0C115CF
:1034F00028E0D20758F4FC2ED45033E0D695C79577
:103500003A95E1F7C07ECC6080E018C0CE0197709C
:10351000892FFC2EC115E0E6DE0740F426E0D695A3
:10352000C7952A95E1F7C07EC46108C0D05696E0E1
:10353000D695C7959A95E1F7C07ECC610E94C815D3
:103540008F2D0E94C8158C2F0E94C815CD2DDE2D01
:103550007E01E00EF11ECE15DF0521F089910E945B
:10356000C815F9CF0E94CF15C801DF91CF911F91E7
:103570000F91FF90EF90DF90BF90AF900895CF93A1
:10358000DF931F92CDB7DEB7698341E050E0BE0103
:103590006F5F7F4F0E943C1A0F90DF91CF9108958B
:1035A0008F929F92AF92BF92CF92DF92EF92FF9253
:1035B0000F931F93CF93DF93EC018B016A01790185
:1035C000FA01608181E090E00E94BF1AF6016181FA
:1035D00082E090E00E94BF1AF601628183E090E0F1
:1035E0000E94BF1AF601638184E090E00E94BF1A36
:1035F0000E9460024B015C01F2E08F0E911CA11C45
:10360000B11C0E946002681579058A059B05C9F7FF
:10361000688189E090E00E94BF1A69818AE090E0A9
:103620000E94BF1A6A818BE090E00E94BF1A6B81F2
:103630008CE090E00E94BF1A6C818DE090E00E94C7
:10364000BF1A6D818EE090E00E94BF1A0E94600256
:103650004B015C0122E0820E911CA11CB11C0E9456
:103660006002681579058A059B05C9F7F701608135
:1036700085E090E00E94BF1AF701618186E090E04A
:103680000E94BF1AF701628187E090E00E94BF1A92
:10369000F701638188E090E00E94BF1A0E946002F7
:1036A0006B017C01F2E0CF0ED11CE11CF11C0E94E9
:1036B00060026C157D058E059F05C9F7F8016081D4
:1036C0008FE090E00E94BF1AF801618180E190E0F4
:1036D0000E94BF1AF801628181E190E00E94BF1A46
:1036E000F801638182E190E00E94BF1A0E946002AB
:1036F0006B017C01F2E0CF0ED11CE11CF11C0E9499
:1037000060026C157D058E059F05C9F765E58AE1A8
:1037100090E00E94BF1A65E58BE190E00E94BF1A1D
:1037200080E0DF91CF911F910F91FF90EF90DF909C
:10373000CF90BF90AF909F908F900895AF92BF921F
:10374000DF92EF92FF920F931F93CF93DF93EC01E1
:10375000D62EE72E8A0180913904833301F5A62EF7
:10376000B72E7E01E40EF51ECE15DF0509F460C00C
:1037700062E080E50E94BA158FE00E94C8158D2F87
:103780000E94C8158C2F0E94C815219680E00E94C7
:10379000C815F50181935F010E94CF15E5CF62E066
:1037A00080E50E94BA15C115F4E0DF0718F4FC2E7D
:1037B000C0E00DC0C11528E0D20758F4FC2ED4504B
:1037C00033E0D695C7953A95E1F7C07EC86080E0B2
:1037D00018C0CE019770892FFC2EC115E0E6DE07D8
:1037E00040F426E0D695C7952A95E1F7C07EC061E2
:1037F00008C0D05696E0D695C7959A95E1F7C07E59
:10380000C8610E94C8158F2D0E94C8158C2F0E9478
:10381000C815CD2DDE2D7E01E00EF11ECE15DF0583
:1038200029F080E00E94C8158993F8CF0E94CF1537
:10383000C801DF91CF911F910F91FF90EF90DF9022
:10384000BF90AF900895CF93DF931F92CDB7DEB7AF
:1038500041E050E0BE016F5F7F4F0E949E1B898157
:103860000F90DF91CF91089590E00496982F8827CC
:10387000860F971F0C94231C9B0190E00496982FB1
:103880008827642F820F931F0E94BF1A0895FB019F
:10389000BA0190E00496982F8827A9018E0F9F1FE8
:1038A0000C949E1BFB01BA0190E00496982F882788
:1038B000A9018E0F9F1F0C943C1AAF92BF92CF921A
:1038C000DF92EF92FF920F931F93CF93DF9300D07D
:1038D000CDB7DEB77A836983BA01A901A981BA811C
:1038E000B770E82FF0E0EE0FFF1FEA57FE4FE080C1
:1038F000F180CD018E0D9F1D9D01240F351F2130BC
:10390000384080F06A015B0100E018E00A1B1B0BE5
:10391000A8010E949E1BA601401B510BB501600F20
:10392000711FC7010F900F90DF91CF911F910F91E1
:10393000FF90EF90DF90CF90BF90AF900C949E1BC4
:10394000682F80E090E00C94BF1A80E090E00C9427
:10395000231CCF92DF92EF92FF9283E3809339048E
:1039600060E880E090E00E94BF1A0E9460026B0154
:103970007C0122E0C20ED11CE11CF11C0E946002FD
:103980006C157D058E059F05C9F780E10E94A01C7E
:103990000E94A51C803121F01092390480E00FC0F4
:1039A00082E10E94A01C0E94A51C8231A9F780E040
:1039B0000E94A01C0E94A51C8111EECF81E0FF9007
:1039C000EF90DF90CF900895CF92DF92EF92FF9229
:1039D00087E38093390460E880E090E00E94BF1A9A
:1039E0000E9460026B017C0122E0C20ED11CE11C2E
:1039F000F11C0E9460026C157D058E059F05C9F7BC
:103A000088E00E94A01C0E94A51C883021F0109222
:103A1000390480E00FC080E10E94A01C0E94A51C18
:103A20008031A9F780E00E94A01C0E94A51C811192
:103A3000EECF81E0FF90EF90DF90CF9008950E944D
:103A4000A91C811102C00C94E41C089544E050E0CC
:103A5000BC0181E090E00C943C1A44E050E0BC01D1
:103A600081E090E00C949E1B44E050E0BC0185E0B6
:103A700090E00C943C1A44E050E0BC0185E090E0FA
:103A80000C949E1B46E050E0BC0189E090E00C9451
:103A90003C1A46E050E0BC0189E090E00C949E1B8B
:103AA00044E050E0BC018FE090E00C943C1A44E00C
:103AB00050E0BC018FE090E00C949E1B682F85E1E4
:103AC00090E00C94BF1A85E190E00C94231CCF93F6
:103AD000C82F692F87E190E00E94BF1A6C2F88E100
:103AE00090E0CF910C94BF1ACF93DF9387E190E0E1
:103AF0000E94231CC82FD0E0DC2FCC2788E190E067
:103B00000E94231C9E01280F311DC901DF91CF9116
:103B1000089544E050E0BC018AE290E00C943C1A25
:103B200044E050E0BC018AE290E00C949E1BCF93ED
:103B3000C82F692F8EE290E00E94BF1A6C2F8FE28F
:103B400090E0CF910C94BF1ACF93DF938EE290E078
:103B50000E94231CC82FD0E0DC2FCC278FE290E0FE
:103B60000E94231C9E01280F311DC901DF91CF91B6
:103B70000895462F60E070E00C943C1C60E070E01B
:103B80000C94341C462F61E070E00C943C1C61E006
:103B900070E00C94341CCF93C82F0E94C21D8C2F50
:103BA0000E94C71D8111FBCFCF910895462F62E07F
:103BB00070E00C943C1C62E070E00C94341C462FC6
:103BC00063E070E00C943C1C63E070E00C94341CE7
:103BD000CF93DF93C82FD62F472F64E070E00E9469
:103BE0003C1C4D2F65E070E08C2FDF91CF910C9441
:103BF0003C1C1F93CF93DF93182F64E070E00E946A
:103C0000341CC82FD0E065E070E0812F0E94341C86
:103C1000DC2FCC279E01282BC901DF91CF911F916A
:103C20000895AB0126E030E066E070E00C94521C91
:103C3000AB0126E030E066E070E00C94471CAB017D
:103C400024E030E06CE070E00C94521CAB0124E006
:103C500030E06CE070E00C94471CCF93DF93C82FEA
:103C6000D62F472F60E170E00E943C1C4D2F61E190
:103C700070E08C2FDF91CF910C943C1C1F93CF935D
:103C8000DF93182F60E170E00E94341CC82FD0E051
:103C900061E170E0812F0E94341CDC2FCC279E0153
:103CA000282BC901DF91CF911F910895CF93DF9306
:103CB000C82FD62F472F62E170E00E943C1C4D2F89
:103CC00063E170E08C2FDF91CF910C943C1C1F932B
:103CD000CF93DF93182F62E170E00E94341CC82F4D
:103CE000D0E063E170E0812F0E94341CDC2FCC27F0
:103CF0009E01282BC901DF91CF911F910895CF9389
:103D0000DF93C82FD62F472F60E270E00E943C1C43
:103D10004D2F61E270E08C2FDF91CF910C943C1C11
:103D20001F93CF93DF93182F60E270E00E94341C42
:103D3000C82FD0E061E270E0812F0E94341CDC2F9C
:103D4000CC279E01282BC901DF91CF911F910895A7
:103D5000FF920F931F93CF93DF93F82EC0E0D0E034
:103D60008F2D0E94901E8C01892B21F08F2D0E9497
:103D7000901EEC01C017D10799F7CE01DF91CF91CA
:103D80001F910F91FF900895CF93DF93C82FD62FE7
:103D9000472F62E270E00E943C1C4D2F63E270E00E
:103DA0008C2FDF91CF910C943C1C1F93CF93DF930A
:103DB000182F62E270E00E94341CC82FD0E063E24A
:103DC00070E0812F0E94341CDC2FCC279E01282B11
:103DD000C901DF91CF911F910895CF93DF93C82F31
:103DE000D62F472F64E270E00E943C1C4D2F65E205
:103DF00070E08C2FDF91CF910C943C1C9F92AF927E
:103E0000BF92CF92DF92EF92FF920F931F93CF93C7
:103E1000DF93982E7B016A0189010E94D51EE80E6E
:103E2000F91E97013770E92DF0E0EE0FFF1FE25702
:103E3000FE4FA080B180C9018A0D9B1DA901400FD2
:103E4000511F4130584080F0C0E0D8E0C21BD30B76
:103E5000AE01B6010E943C1AA8014C1B5D0BB601D5
:103E60006C0F7D1FC50102C0A801B6010E943C1A5B
:103E7000B701600F711F892DDF91CF911F910F91B5
:103E8000FF90EF90DF90CF90BF90AF909F900C94F9
:103E9000ED1E9A01AB0160E070E00C94FE1E1F93D2
:103EA000CF93DF93182F64E270E00E94341CC82F78
:103EB000D0E065E270E0812F0E94341CDC2FCC271B
:103EC0009E01282BC901DF91CF911F910895CF93B7
:103ED000DF93C82FD62F472F66E270E00E943C1C6C
:103EE0004D2F67E270E08C2FDF91CF910C943C1C3A
:103EF0001F93CF93DF93182F66E270E00E94341C6B
:103F0000C82FD0E067E270E0812F0E94341CDC2FC4
:103F1000CC279E01282BC901DF91CF911F910895D5
:103F2000FF920F931F93CF93DF93F82EC0E0D0E062
:103F30008F2D0E94781F8C01892B21F08F2D0E94DC
:103F4000781FEC01C017D10799F7CE01DF91CF910F
:103F50001F910F91FF900895CF93DF93C82FD62F15
:103F6000472F68E270E00E943C1C4D2F69E270E030
:103F70008C2FDF91CF910C943C1C1F93CF93DF9338
:103F8000182F68E270E00E94341CC82FD0E069E26C
:103F900070E0812F0E94341CDC2FCC279E01282B3F
:103FA000C901DF91CF911F910895CF92DF92EF92D7
:103FB000FF920F931F93CF93DF93182F6B017A011A
:103FC000E9010E94BD1F8C0F9D1FEC01D770970166
:103FD000A601BE01812F0E945D1C011112C0BE010D
:103FE0006E0D7F1D812F0E94AC1F60E4812FDF9139
:103FF000CF911F910F91FF90EF90DF90CF900C9495
:10400000CB1DDF91CF911F910F91FF90EF90DF902B
:10401000CF9008950F93022F20E030E00E94D51F2B
:104020000F910895CF93DF93C82FD62F472F6AE2C1
:1040300070E00E943C1C4D2F6BE270E08C2FDF91F2
:10404000CF910C943C1C1F93CF93DF93182F6AE2FF
:1040500070E00E94341CC82FD0E06BE270E0812F2A
:104060000E94341CDC2FCC279E01282BC901DF9134
:10407000CF911F9108951F920F920FB60F921124A6
:104080000E94160982E00E94DE0A0E94AC0A0E9489
:104090009601FBCF9FB7F894A895E0E6F0E0808109
:1040A000886180838FE480839FBF0895A8950895D9
:1040B000809160008B7080936000FFCF1092C000F1
:1040C00087E690E09093C5008093C400E1ECF0E0B7
:1040D00088E1808386E08093C2008081806A80834B
:1040E00008951F920F920FB60F9211242F933F93B2
:1040F0008F939F93EF93FF9380914004882309F45B
:10410000F0C08091C60090913F04992309F4E3C068
:1041100090EE980F9F3518F08D3009F059C020911E
:104120003C0490913D0430E0291B310921503109B4
:104130002F733327232B61F0E0913D04F0E0ED5223
:10414000FB4F808390913D049F5F9F7390933D044C
:1041500020913A0490913B0430E0291B3109215011
:1041600031092F733327232B89F0E0913B04F0E0D2
:10417000ED5EFA4F808390913B049F5F9F73909315
:104180003B049091C10090629093C1008D3009F082
:10419000C5C080913A0420913B0490E0821B9109B4
:1041A00001978F739927892B69F0E0913B04F0E028
:1041B000ED5EFA4F8AE0808380913B048F5F8F73BE
:1041C00080933B0480913E048F5F80933E04A6C0A1
:1041D000883011F08F37C1F580913D0420913C0467
:1041E00090E0821B91098F739927892B09F496C05F
:1041F000E0913D04F0E0ED52FB4F808180913D0461
:1042000081508F7380933D0480913A0420913B0448
:1042100090E0821B910901978F739927892B09F4EC
:104220007DC0E0913B04F0E0ED5EFA4F8FE78083C4
:1042300080913B048F5F8F7380933B048091C1001A
:1042400080628093C1006AC0843009F067C08091A9
:104250003D0420913C0490E0821B91098F739927C3
:10426000892B31F1E0913D04F0E0ED52FB4F80816C
:104270008D30F1F080913C0420913D0490E0821B50
:10428000910901978F739927892B91F0E0913D0453
:10429000F0E0ED52FB4F8DE0808380913D048F5F15
:1042A0008F7380933D0480913E048F5F80933E0422
:1042B00080913C0420913D0490E0821B910901977C
:1042C0008F739927892B51F1E0913D04F0E0ED5275
:1042D000FB4F84E019C0833009F581E080933F04EF
:1042E0001DC080913C0420913D0490E0821B910907
:1042F00001978F739927892B79F0E0913D04F0E0C5
:104300008091C600ED52FB4F808380913D048F5F0A
:104310008F7380933D0402C08091C600FF91EF919E
:104320009F918F913F912F910F900FBE0F901F90F3
:1043300018951F920F920FB60F9211242F938F93FF
:104340009F93EF93FF9380913B0420913A0490E078
:10435000821B91098F739927892B79F0E0913A0498
:10436000F0E0ED5EFA4F80818093C60080913A04C0
:104370008F5F8F7380933A0405C08091C1008F7D59
:104380008093C100FF91EF919F918F912F910F909A
:104390000FBE0F901F90189580913D0490913C04A2
:1043A000891B8F73089580913D0420913C0490E017
:1043B000821B91098F739927892BC1F0E0913C04EE
:1043C000F0E0ED52FB4F808190913C049F5F9F7322
:1043D00090933C0490914004992349F08D3039F436
:1043E00090913E04915090933E04089580E008958A
:1043F00081E08093400480913D0420913C0490E052
:10440000821B91098F739927892BB1F0E0913C04AD
:10441000F0E0ED52FB4F8081843071F410923F0444
:10442000E0913C04F0E0ED52FB4F808180913C0430
:104430008F5F8F7380933C0480913F040895809137
:104440003E0408950FB607FE0EC020913A049091E5
:104450003B0430E0291B3109215031092F733327E8
:10446000232B99F30DC020913A0490913B0430E046
:10447000291B3109215031092F733327232B61F078
:10448000E0913B04F0E0ED5EFA4F808380913B04C5
:104490008F5F8F7380933B048091C1008062809313
:1044A000C10008951F93CF93DF93EC0180E011E0EA
:1044B000180FFE01E80FF11D8081882321F00E9472
:1044C0002222812FF4CFDF91CF911F9108951F9366
:1044D000CF93DF93EC0180E011E0180FFE01E80FAD
:1044E000F11D8491882321F00E942222812FF4CF94
:1044F000DF91CF911F910895CF93DF9300D000D02B
:10450000CDB7DEB70E94B1170E940D090E94231A91
:104510000E9463010E94B1090E94880C0E94A515A7
:104520000E9475160E941F1D0E94AC1646E951E0BC
:104530006FE971E086EA91E00E94740F19821A8295
:104540001B821C829E012F5F3F4FA901B90188EC9D
:1045500094E00E94D01A00EA1FE020E030E040E63C
:104560005AEE60E070E088EC94E00E94C407892B6A
:1045700091F389EA91E00E94B7170E9479020E94A4
:10458000AD180E947C027C010E947F028C010E9477
:1045900079029701A801BC0188EC94E00E94D01A2E
:1045A00083E00E94DE0A85E00E94A90B84E00E945D
:1045B000DE0A0E944A2080E00E94DE0A80E090E04D
:1045C0000E946D000E94D80F0E94871668E873E170
:1045D00080E090E00E94360284E6D82E94E0F92E26
:1045E00023E6322E33E0B32E49E0E42E5CE6A52E1E
:1045F00065E0262E7FE6972EE7E78E2EF2E0CF2E9F
:104600000E9456200E942C0980E090E00E941D022A
:10461000892B09F10E947C16892BE9F00E948D16E6
:1046200000914B0410914C042091490430914A04AC
:1046300040914704509148046091450470914604AC
:104640000E94AD160E94871668EE73E080E090E04D
:104650000E943602D5CF80E00E945210882349F094
:1046600060E97FE180E00E94921080E00E94981053
:10467000C7CF80E00E944314882309F4F6C2E0917A
:1046800055038E2FEE0F990BAA0BBB0B8A309105A9
:1046900008F0E5C2FC01EC5CFF4F0C94B32681E00E
:1046A00080935503ADCF64EB71E080E00E949314DA
:1046B000882319F0D09254030AC06BEB71E080E0BC
:1046C0000E949314882331F087E680935403C092AC
:1046D000550396CF6FEB71E080E00E94931488231E
:1046E00009F48BC080E7F1CF809100018F3241F057
:1046F00041E050E060E071E080E00E942411F4CFDE
:1047000080915403873681F08037C9F0843609F0F0
:1047100074C063EC71E080E00E949314882309F474
:104720006CC0A092530366C06FEC71E080E00E9401
:104730009314882309F461C0D09253035BC067EDE2
:1047400071E080E00E949314882339F0D0925303E3
:10475000B09255036FED71E021C061EE71E080E031
:104760000E949314882309F448C030925303B092F6
:10477000550346CF809153038336A1F08436E9F583
:1047800060EF71E080E00E9493148823B1F182E72A
:1047900080935203F09255036DEF71E080E00E9428
:1047A000D8122ECF63E072E080E00E949314882339
:1047B00021F084E7809352031DC06DE072E080E039
:1047C0000E949314882319F08092520313C067E16A
:1047D00072E080E00E949314882319F0A0925203A3
:1047E00009C061E272E080E00E949314882329F0FE
:1047F00090925203F092550303CFE092550300CFFD
:1048000080915403873641F480915303843609F034
:10481000A1C0209255039EC0803709F091C08091BD
:104820005303843651F480915203823709F085C0D6
:10483000109255030E9458208DC0833609F08AC01B
:10484000809152038F3609F45AC024F48C3609F44F
:104850003FC073C0843719F08737D1F06EC060E075
:1048600070E080E00E943215882309F466C08091D0
:1048700000009091010020914704309148042817CE
:1048800039070CF05AC0909346048093450460C0E9
:1048900060E070E080E00E943215882309F44DC08A
:1048A00080910000909101002091450430914604D0
:1048B000821793070CF041C020914B0430914C04B7
:1048C00028173907D4F5909348048093470440C0D3
:1048D00060E070E080E00E943215882371F18091E1
:1048E00000009091010020914B0430914C048217FC
:1048F00093071CF590934A048093490429C060E013
:1049000070E080E00E9432158823B9F080910000A9
:104910009091010020914704309148048217930739
:1049200064F42091490430914A04281739072CF483
:1049300090934C0480934B040BC0E09255030AC043
:10494000843641F4809153038C3621F40E942F0B5E
:104950001092550380915503811152CE6BE272E0A3
:104960000E94D81280E00E94E9147BC165E372E0E6
:1049700080E00E94D81260E372E080E00E94F912A9
:1049800064E372E080E00E94D81267E372E080E0A6
:104990000E94F9126DE372E080E00E94D81260EA92
:1049A00074E080E00E94F91264E872E080E00E9406
:1049B000D8126FE372E080E00E94F9126DE372E0BA
:1049C00080E00E94D8126CEA74E080E00E94F91244
:1049D00064E872E080E00E94D8126CE472E080E04B
:1049E0000E94F9126DE372E080E00E94D81268EB39
:1049F00074E080E00E94F91264E872E080E00E94B6
:104A0000D8126AE572E080E00E94F9126DE372E06C
:104A100080E00E94D8124091C4045091C504609176
:104A2000C6047091C70480E00E940C1364E872E031
:104A300080E00E94D8126BE672E080E00E94F912DA
:104A40006DE372E080E00E94D81268EC74E080E0D0
:104A50000E94371364E872E080E00E94D81267E792
:104A600072E080E00E94F9126DE372E080E00E9443
:104A7000D8126EEC74E080E00E94F91263E872E0F4
:104A800080E00E94D81266E872E080E00E94F9128D
:104A90006DE372E080E00E94D8126091450470914D
:104AA000460480E00E946D1364E872E080E00E949A
:104AB000D8126FE872E080E00E94F9126DE372E0B4
:104AC00080E00E94D812609147047091480480E011
:104AD0000E946D1364E872E080E00E94D81268E9D9
:104AE00072E080E00E94F9126DE372E080E00E94C3
:104AF000D8126091490470914A0480E00E946D13BD
:104B000064E872E080E00E94D81261EA72E080E01E
:104B10000E94F9126DE372E080E00E94D812609169
:104B20004B0470914C0480E00E946D1364E872E0C5
:104B300080E00E94D8126AEA72E080E00E94F912D6
:104B40006DE372E080E00E94D8120E948D16BC01D5
:104B500080E00E946D1364E872E080E00E94D81249
:104B600066EB72E080E00E94F9126AEB72E080E08E
:104B70000E94D812412C512C32010E944C0B90E023
:104B8000A0E0B0E0481659066A067B0608F052C05D
:104B900020E030E040E050E0C301B2010E94650B2C
:104BA00065E372E080E00E94D8126DEB72E080E075
:104BB0000E94F9126DE372E080E00E94D8124091E9
:104BC000000050910100609102007091030080E0AC
:104BD0000E940C1364E872E080E00E94D81267EC37
:104BE00072E080E00E94F9126DE372E080E00E94C2
:104BF000D8126091000070E080E00E946D136DECAF
:104C000072E080E00E94D8128FEF481A580A680AB2
:104C1000780A0E944C0B90E0A0E0B0E048165906DC
:104C20006A067B0609F4A9CF64E872E080E00E947E
:104C3000D812A3CF6FEC72E080E00E94D8126DEC26
:104C400072E080E00E94D8126CEF72E005C080E054
:104C50000E94E91461ED72E080E00E94D812109287
:104C6000550380E00E945B10CBCC0E94760A0E9424
:104C70007E01C6CCDB018F939F930E94CF26BF910C
:104C8000AF91A29F800D911DA39F900DB29F900D9B
:104C900011240895AA1BBB1B51E107C0AA1FBB1F0B
:104CA000A617B70710F0A61BB70B881F991F5A95B8
:104CB000A9F780959095BC01CD01089597FB072E2B
:104CC00016F4009407D077FD09D00E944A2607FC0D
:104CD00005D03EF4909581959F4F0895709561950C
:104CE0007F4F0895A1E21A2EAA1BBB1BFD010DC028
:104CF000AA1FBB1FEE1FFF1FA217B307E407F5078C
:104D000020F0A21BB30BE40BF50B661F771F881F67
:104D1000991F1A9469F760957095809590959B01FD
:104D2000AC01BD01CF010895052E97FB1EF4009440
:104D30000E94AB2657FD07D00E94722607FC03D0C5
:104D40004EF40C94AB2650954095309521953F4FED
:104D50004F4F5F4F089590958095709561957F4F67
:104D60008F4F9F4F0895EE0FFF1F0590F491E02D98
:104D70000994692796276927782787277827089530
:104D8000A29FB001B39FC001A39F700D811D11248C
:104D9000911DB29F700D811D1124911D08950E94D7
:104DA000C026A59F900DB49F900DA49F800D911DCE
:084DB00011240895F894FFCFCF
:104DB800030B443100802500002D00040B44300013
:104DC800802500002D0002060024F400010C617407
:084DD8006D656761333238009C
:104DE000204B0041535500FF03FE0300000100006B
:104DF000C0A801640030302F30302F3030303020E8
:104E000030303A30303A303000E5559A15B53B1223
:104E10001FEF010101FFFFFFFFC0A801011F1C1FC1
:104E20001E1F1E1F1F1E1F1E1F01005E00000053BD
:104E300045520053616E6479000000000000004498
:104E40006F75676C617300000000005F554E415341
:104E50005349474E45440000000000444F5553411C
:104E60004E5553410000006000480070007800403B
:104E70000048005000587461666F737465340046D2
:104E80006F73746572005479006C6F63616C206994
:104E9000703A200044454C45544500474554005065
:104EA0005554006465766963652F6C6F67200064F4
:104EB000657669636520006465766963653F0052C5
:104EC000006465766963652F636F6E6669673F008E
:104ED00072657365743D2274727565220052455384
:104EE00045540074637269745F68693D007477614A
:104EF000726E5F68693D0074637269745F6C6F3DC8
:104F000000747761726E5F6C6F3D004F4B0D0A004D
:104F1000767064003A7B006D6F64656C003A006DDA
:104F2000616E75666163747572657200736572692E
:104F3000616C5F6E756D626572006D616E75666144
:104F400063747572655F64617465006D61635F6150
:104F500064647265737300636F756E74725F636F00
:104F60006465007D2C0074637269745F6869007405
:104F70007761726E5F68690074637269745F6C6FE9
:104F800000747761726E5F6C6F0074656D7065722E
:104F90006174757265006C6F67003A5B0074696DCF
:104FA000657374616D70006576656E74007D005D7B
:104FB00000494E56414C49440D0A000D0A414C41EE
:104FC000524D3A200057495A6E65740074696D65F8
:104FD0002073796E63656420005554430D0A0030D8
:104FE000302F30302F303030302030303A30303ABF
:104FF00030300050726F6A656374206E6F74207376
:1050000069676E65640D0A0066697273746E616D1E
:1050100065006C6173746E616D65006173757269B2
:1050200074650054657374696E670D0A002D002E57
:0250300000007E
:00000001FF
